:020000040800F2
:10000000B06D002041030008AF3E0008FD38000835
:10001000AD3E000805160008454E0008000000002F
:100020000000000000000000000000008102000845
:10003000E917000800000000DD0200088147000801
:100040005B0300085B0300085B0300085B03000818
:100050005B0300085B0300085B0300085B03000808
:100060005B0300085B0300085B0300085B030008F8
:10007000491700085B0300085B0300085B030008E6
:100080005B0300085B0300085B0300085B030008D8
:10009000091600085B0300085B0300085B03000807
:1000A0005B0300085B0300085B0300085B030008B8
:1000B000514800085D480008694800085B030008D3
:1000C0005B0300085B0300085B0300085B03000898
:1000D0005B0300085B0300085B030008FD4C00089D
:1000E0005B0300085B0300085B0300085B03000878
:1000F0005B0300085B0300085B0300085B03000868
:100100005B0300085B0300085B0300085B03000857
:100110005B0300085B0300085B0300085B03000847
:100120005B030008551700085B0300085B03000829
:100130005B0300085B0300085B0300085B03000827
:100140005B0300085B0300085B0300085B03000817
:100150005B030008611700085B030008B14D00084D
:100160005B0300085B0300085B0300085B030008F7
:100170005B0300085B0300085B030008000000004D
:100180005B0300085B03000800F002F800F069F868
:100190000AA090E8000C82448344AAF10107DA45E2
:1001A00001D100F05EF8AFF2090EBAE80F0013F0CB
:1001B000010F18BFFB1A43F001031847E482000047
:1001C000048300000A444FF0000C10F8013B13F0C8
:1001D000070408BF10F8014B1D1108BF10F8015BA0
:1001E000641E05D010F8016B641E01F8016BF9D193
:1001F00013F0080F1EBF10F8014BAD1C0C1B09D1EA
:100200006D1E58BF01F801CBFAD505E014F8016B5B
:1002100001F8016B6D1EF9D59142D6D370470000ED
:100220000023002400250026103A28BF78C1FBD8FF
:10023000520728BF30C148BF0B607047662906F0DF
:100240007981002070471FB506F06FF900F0A0FC1F
:1002500004000020002106F0DBF8E0601FBD10B5AF
:1002600010BD00F092FD1146FFF7EDFF04F0F6FE21
:1002700000F0B0FD03B4FFF7F2FF03BC00F0F4FDA3
:100280002C4B19680868B0E8F04F80F30988BFF379
:100290006F8F4FF0000080F311887047000000005E
:1002A00008480068006880F308884FF0000080F379
:1002B000148862B661B6BFF34F8FBFF36F8F00DF54
:1002C00000BF00BF08ED00E0DFF80C00016841F45A
:1002D00070010160704700BF88ED00E0EFF3098016
:1002E000BFF36F8F134B1A681EF0100F08BF20ED7D
:1002F000108A20E9F04F106009B44FF0500080F3ED
:100300001188BFF34F8FBFF36F8F05F087FE4FF05B
:10031000000080F3118809BC19680868B0E8F04F44
:100320001EF0100F08BFB0EC108A80F30988BFF3ED
:100330006F8F7047E0140020EFF3058070470000D6
:100340000948804709480047FEE7FEE7FEE7FEE769
:10035000FEE7FEE7FEE7FEE7FEE7FEE704480549A5
:10036000054A064B70470000414800088901000813
:10037000B0670020B06D0020B0690020B069002097
:1003800053EA020C00F069802DE9F04B4FF00006B3
:10039000002B1FBFB3FA83F503FA05F424FA05F620
:1003A0005E4012BF1643B2FA82F502FA05F4C5F1B7
:1003B00020051EBF22FA05FC44EA0C04203556EA4B
:1003C000044C4FEA144418BF641C4FF000084FF06F
:1003D0000009904271EB030C39D3002919BFB1FA1F
:1003E00081F701FA07F6B0FA80F700FA07F6C7F1CD
:1003F00020071EBF20FA07FC46EA0C062037B6FB92
:10040000F4FCA7EB0507103F07F01F0BCBF120060C
:100410000CFA0BFB2CFA06F644BFB3460026202F3D
:10042000A4BF5E464FF0000B5BEA060C08BF4FF01E
:10043000010B19EB0B09ABFB027C48EB0608C01B58
:1004400006FB02CC0BFB03CC71EB0C01C1E70B46A6
:10045000024641464846BDE8F08B13B54FF0000018
:100460004FF00001AFF30080BDE81C407047000072
:100470000FB41CB5074B06AA7B446946009005984B
:1004800000F069FB0020694600F078FB1CBC5DF8B9
:1004900014FB0000010700002DE9F0474FF0000AAF
:1004A00089460446C0F820A02046E1688847002815
:1004B00076D0252806D0D4E901219047206A401C37
:1004C0002062F1E7E168204600258847C4F81CA0B7
:1004D00006460027C4F818A02A2E09D0304604F09A
:1004E000DAFC38B304EB8708303EC8F8186019E02E
:1004F00059F8041B204604EB87029161E1688847A4
:10050000012F064618D1E069002820DA25F02005E1
:100510001DE0D8F8180000EB800006EB40003038F2
:10052000C8F818002046E1688847064604F0B3FC86
:100530000028EED1012F0AD02E2E08D12046E168E6
:1005400088477F1C0646022F45F02005C4DBA069C2
:10055000002803DA404245F00105A061E80701D018
:1005600025F01005B6B1A6F14100192802D82036B1
:1005700045F400654A463146204625604D46FFF762
:100580005DFE58B1012806D0ED1D25F0070000F1F1
:10059000080989E704E005F1040985E730468AE7A0
:1005A000206ABDE8F087032A40F2308010F0030C87
:1005B00000F0158011F8013BBCF1020F624498BFB6
:1005C00011F801CB00F8013B38BF11F8013BA2F153
:1005D000040298BF00F801CB38BF00F8013B11F0CE
:1005E000030300F02580083AC0F0088051F8043B6E
:1005F000083A51F804CBA0E80810F5E7121D5CBFDB
:1006000051F8043B40F8043BAFF30080D20724BF0D
:1006100011F8013B11F801CB48BF11F8012B24BFA1
:1006200000F8013B00F801CB48BF00F8012B7047F0
:1006300010B5203AC0F00B80B1E81850203AA0E87D
:100640001850B1E81850A0E81850BFF4F5AF5FEAB1
:10065000027C24BFB1E81850A0E8185044BF18C964
:1006600018C0BDE810405FEA827C24BF51F8043B0B
:1006700040F8043B08BF7047D20728BF31F8023B5F
:1006800048BF11F8012B28BF20F8023B48BF00F8F3
:10069000012B70474FF000020429C0F0128010F0C7
:1006A000030C00F01B80CCF1040CBCF1020F18BF4E
:1006B00000F8012BA8BF20F8022BA1EB0C0100F0E1
:1006C0000DB85FEAC17C24BF00F8012B00F8012BB4
:1006D00048BF00F8012B70474FF0000200B51346E9
:1006E00094469646203922BFA0E80C50A0E80C5052
:1006F000B1F12001BFF4F7AF090728BFA0E80C5003
:1007000048BF0CC05DF804EB890028BF40F8042BFB
:1007100008BF704748BF20F8022B11F0804F18BF68
:1007200000F8012B704770477047704770472DE9FC
:10073000FF4F0C461E464FF0FF378BB0D2E9000149
:10074000DDF860800A908A46C1F30A5505B93D4636
:10075000002108464FF00000BAF1000F00F44000FD
:1007600005DA00EB80004FF4400101EA50004FEA47
:100770009059B9F1010F00DDB9460A9850EA4A00D4
:100780000ED044F61050A5F2FF3545432F14B8F1B2
:10079000000F1ED07542291E1EDDC9F100021CE0AB
:1007A000B8F1010F4FF0000001D0302103E0F24317
:1007B00005E02154401CB042FBDB30460022002102
:1007C00021540B99C1F80880C1E900200FB0BDE8A1
:1007D000F08FBD1B6D1CDEE74A4600DA694206A8B1
:1007E00000F060FA06AB93E8070003AB83E807006C
:1007F00050460A9900F03EFB8DE80700A0F5005036
:100800001F3800900398002D0ADD42F21F014A466E
:100810000844002303A90390684600F0A7FD09E0FF
:10082000A0F500504A461F38002303A903906846EC
:1008300000F0B1FD8DE807000004000C03D04FF07C
:10084000FF30410800E01046B8F1000F03D000224D
:10085000009215461EE0751E05D400F09DF9303259
:1008600062556D1EF9D5B3460122084302D000221D
:100870007F1C04E02078302801D100227F1E002A4E
:10088000099784D01DE0112D07DA00F085F9303288
:1008900062556D1C50EA0102F5D1084302D0009860
:1008A000C8B10EE00021681E05E0235C625C635461
:1008B0002254401E491C8142F7DBAB46A81B401E58
:1008C0000990002004F80B000B98099AC0F80880E2
:1008D000C0E9002B7AE711264FF0000857E72DE911
:1008E000F04F88460446D21D22F0070191B0D1E9AD
:1008F0000001CDE90A0104F0A6FA02460B98C00FE8
:1009000001D02D2007E02068810701D52B2002E0CF
:10091000202101EAC000032A099001D0072A05DB43
:1009200003464146204600F07DF90BE12078800621
:1009300001D5E06900E00620B8F1650F814606D0D8
:10094000B8F1660F18D0B8F1670F70D131E0002010
:10095000B9F1110F009001DB112301E009F101034E
:100960000AAA01A90CA8FFF7E2FEDDE90C70002637
:1009700009F10105834647E001204B4600904FF006
:1009800000470AAA01A90CA8FFF7D1FEDDE90DB0C6
:100990000C995D46002610B909F101000D18B9EB5C
:1009A000050003D4C0F1FF3609F10105A5EB0900EC
:1009B0002BE0B9F1010F01DA4FF001090020B9F184
:1009C000110F0090484601DD112300E003460AAAFA
:1009D00001A90CA8FFF7ABFEDDE90C704D4600261F
:1009E0008346207800070AD4AB4500DA5D4601A8AB
:1009F000012D04DD411911F8011C302907D04F45A4
:100A000002DA17F1040F04DA012082460FE06D1EAE
:100A1000EEE7002F02DCED1B3E4403E0781CA84209
:100A200000DD7D1CB81B00F1010A4FF00047207863
:100A3000000703D4AA4501DB4FF0FF3A0021B7F1CC
:100A4000004F0DF143088DF8431024D002202B23D2
:100A5000002F01DA7F422D230A21021EA0F101009E
:100A600000DC5FB197FBF1FC97FBF1F201FB1C7C12
:100A700017460CF1300C08F801CDEEE7A8F10100A3
:100A800003702188090501D5452100E06521A0F109
:100A9000010800F8011C09980FA9A1EB0807FF1D28
:100AA00000B10120411901EBEA70A1693844081A2C
:100AB000401EA0612078C00602D42046AFF300801B
:100AC000099828B1D4E901219047206A401C20628E
:100AD0002078C00622D52046AFF300801EE0002E0D
:100AE00004DBB34502DD01A8805D00E03020D4E9DD
:100AF00001219047206A401C2062761CAAF1010067
:100B00005FEA000A0AD100F043F8C0680168405C5F
:100B1000D4E901219047206A401C2062281EA5F1DB
:100B20000105DCDC07E0D4E9012118F8010B90474E
:100B3000206A401C2062381EA7F10107F3DC204622
:100B4000AFF30080032011B041E6000001694A1CA8
:100B500002610878704700B58FB0CDE901310021FE
:100B6000059105497944CDE9031011466846FFF720
:100B700093FC0FB000BD0000E5FFFFFF0A6802F81C
:100B8000010B0A6070470000004870474C67002066
:100B9000004870476C67002030B5B0F10A024FEA98
:100BA000900E71F100034EEA817EB0EB0E0061EB16
:100BB00091014FEA101E4EEA017E10EB0E0041EB50
:100BC00011114FEA102E4EEA016E10EB0E0041EBB0
:100BD00011214FEA104E4EEA014E10EB0E0041EB90
:100BE0001141401841F100014FEAD00040EA417044
:100BF0004FEAD10110EB80054FEA810444EA90747A
:100C000044EB01046D1944EB0404521BA3414FF063
:100C1000000348BF0A3200D530BD401C41F100013D
:100C200030BD00002DE9F0411F460446032601684F
:100C3000072A01F4006004DB08B116A505E016A53B
:100C400003E008B115A500E015A521F01000206013
:100C5000A069C01EA0610FB1401EA0612046AFF385
:100C600000804FB1D4E9012138469047206A401CEA
:100C70002062C01C206206E0206AFAE7D4E9012164
:100C800015F8010B9047761EF8D22046AFF300808E
:100C9000BDE8F0814E414E006E616E00494E460047
:100CA000696E66002DE9F047814616468AB03548E0
:100CB00078440DC88DE80D0032487844801C03ACA0
:100CC0000DC884E80D0041F69B300844372190FBA5
:100CD000F1F290FBF1F5A5F1800501FB12041B3C3C
:100CE00002D56442012000E00020DFF898A0804691
:100CF0000027FA44AAF1BE0A0EE0E0070AD0324605
:100D0000684607EB470101230AEB810100F043FB32
:100D10008DE8070064107F1C002CEED1194F7F4432
:100D2000AE3F19E0E80715D007EB04100DF1180AE3
:100D300090E80E008AE80E00C068F04201D19819D0
:100D400008903246012306A903A800F024FB03AB58
:100D500083E807006D10641C002DE3D14FF0010300
:100D600032466946B8F1000F03A802D000F0FEFA3F
:100D700001E000F010FBC9E90001C9F808200AB041
:100D8000BDE8F0878877000070477546FFF7FCFEE6
:100D9000AE4605006946534620F00700854618B068
:100DA00020B5FFF7DBFABDE820404FF000064FF01A
:100DB00000074FF000084FF0000B21F00701AC4690
:100DC000ACE8C009ACE8C009ACE8C009ACE8C009AF
:100DD0008D46704710B50446AFF300802046BDE84D
:100DE0001040FFF747BA00004FF0013C50F8042BC9
:100DF00051F8043B9A4221D1A2EB0C03934313EA2E
:100E0000CC1317D150F8042B51F8043B9A4215D15A
:100E1000A2EB0C03934313EACC130BD150F8042B31
:100E200051F8043B9A4209D1A2EB0C03934313EA15
:100E3000CC13DBD04FF00000704700BFD01A01BACE
:100E4000B1FA81F101F0180122FA01F0CB40C1F1B1
:100E50002001DBB2C0B2C01A2CFA01F3D11A9143BF
:100E600011EAC311E6D1704701491820ABBEFEE775
:100E7000260002005FEA400C08BF91F0000F4FEA25
:100E80008C234FEAC12243EA51514FEA1C5018BF4C
:100E900000F5F0404FEA300018BF41F000415FEA32
:100EA0006C5C00F02980BCF1FF3F08BF40F080403F
:100EB0007047130C06BF12044FF0100C4FF0000CDB
:100EC000130E04BF12020CF1080C130F04BF120121
:100ED0000CF1040C930F04BF92000CF1020CD30F21
:100EE00004BF52000CF1010C11464FF00002A0F1BA
:100EF0001F00A0EB0C00704711F0004F08BF7047B7
:100F000031F000413FF4D5AF0B0C06BF09044FF0A0
:100F1000100C4FF0000C0B0E04BF09020CF1080C72
:100F20000B0F04BF09010CF1040C8B0F04BF8900E7
:100F30000CF1020CCB0F04BF49000CF1010CCCF1F9
:100F40002003A0EB0C0022FA03F302FA0CF241EAB0
:100F5000030100F10100704720F07F4C80EA03009C
:100F600023F07F47ACEB070303F57C5300F0004010
:100F700003F1FF032DE980494FEA154B09B44FEA0D
:100F8000144325EA0B4E24EA03480FF2042606EB2D
:100F9000132749083E785FEA320203FB0667C7F56C
:100FA000000707FB06F64FEA54374FEAD64606F12C
:100FB000020607FB066CCCF1005C4FEA1C472CEAEA
:100FC000074C07FB06F40CFB06F504EB15464FEA4D
:100FD000961634BF00204FF000404FEAD13706FB91
:100FE00007FC4FEA1C4C0CFB0BF7D21B03FB0CF766
:100FF00061EB07010CFB0EF7B0EB074072EB1742F9
:101000000CFB08F734BFA2EB0742B2EB074261EBDF
:1010100017414FEA0C444FEA910706FB07FC4FEAE1
:101020001C4C0CFB0BF7B0EBC74072EB573203FBC9
:101030000CF734BFA2EBC742B2EBC74261EB5731AA
:101040000CFB0EF7B0EBC70072EB57720CFB08F706
:1010500034BFA2EBC702B2EBC70261EB5771039F2B
:101060004FEA816141EA921104EBCC044FEAD13797
:101070004FEA826206FB07FC42EA90124FEA806068
:101080004FEA1C4C0CFB0BF7D21B03FB0CF761EB7C
:1010900007010CFB0EF7B0EB074072EB17420CFB9D
:1010A00008F734BFA2EB0742B2EB074261EB1741EE
:1010B0004FEA8C554FEA910704EB9C2406FB07FC92
:1010C0004FEA1C4C0CFB0BF7B0EBC74072EB5732EE
:1010D00003FB0CF734BFA2EBC742B2EBC74261EB94
:1010E00057310CFB0EF7B0EBC70072EB57720CFBDD
:1010F00008F734BFA2EBC702B2EBC70261EB57712E
:1011000015EB4C254FEA816141EA92114FEA826268
:101110004FEAD13742EA901206FB07FC44F1000483
:101120004FEA80604FEA1C4C0CFB0BF7D21B03FB11
:101130000CF761EB07010CFB0EF7B0EB074072EB0D
:1011400017420CFB08F734BFA2EB0742B2EB074291
:1011500061EB174115EB1C154FEA813141EA9241D1
:101160004FEA823242EA90424FEA80304FEA0C76F0
:1011700044F1000448EA03434EEA0B484FF0000EE6
:10118000B2EB080C71EB030724BF624639464EEB05
:101190000E0E4FF0000B0018524149414BEB0B0B68
:1011A000B2EB080C71EB03077BF1000B24BF624626
:1011B00039464EEB0E0E4FF0000B001852414941DC
:1011C0004BEB0B0BB2EB080C71EB03077BF1000B45
:1011D00024BF624639464EEB0E0E51EA020718BF95
:1011E00046F0010616EB0E7655F1000254F10001AF
:1011F00003D5BDE88901BDE80088BDE88901BDE8E7
:101200000048B619524141EB0101A3F101037047B7
:1012100080807F7E7D7C7B7A797877767675747333
:10122000727171706F6E6E6D6C6C6B6A6A696868F2
:10123000676666656464636362616160605F5F5E88
:101240005E5D5D5C5C5B5B5A5A59595858575756FE
:101250005655555554545353525252515150505063
:101260004F4F4F4E4E4D4D4D4C4C4C4B4B4B4A4AB5
:101270004A494949484848474747474646464545F9
:101280004544444444434343434242424241414132
:10129000002B9C4630D477002BD01CB54FEA370783
:1012A00003B44FF010004FF01001BAF1000F06D058
:1012B000BCF1000FDCBF40F0080040F008014FF027
:1012C00000000FBCBDE810400BF1010BBBF1010F9A
:1012D00008BF5FEA170722BF12F1010211F10101F5
:1012E0004FF0004143F1000300F0004043EA0000EA
:1012F0007047F9D35708D0E746EA064613F1400F86
:101300004FEA16461FDD13F1200FDFBF16430A46D2
:10131000002120335B42BED0C3F1200746EA0646D7
:1013200002FA07F74FEA164646EA0706C3F1200716
:1013300022FA03F201FA07F721FA03F14FF0000352
:1013400042EA0702A7E746EA020646EA06464FEAED
:10135000164646EA0106BCBF46EA0646360C4FF082
:1013600000034FF000024FF0000194E72DE9804C9C
:101370009A46934670B491E8380007C831EA400CA9
:1013800048BF34EA430C03D5FFF7E6FDFFF780FFC3
:10139000F0BCBDE8008C2DE9804C9A46934670B4B1
:1013A00091E8380007C810F0804F08BF13F0804F55
:1013B00003D100F005F8FFF76BFFF0BCBDE8008C2F
:1013C00020F07F4780EA030023F07F4C07EB0C03FB
:1013D000A3F57C5300F00040A3F1FE0392F0000F50
:1013E00000F0B38095F0000F00F077802DE90149FF
:1013F0004FEA11404FEA144621EA004800FB06FC80
:1014000024EA064708FB06F607FB08F800FB07F787
:1014100018EB06484CEB164C4FEA124B18EB0748FA
:101420004FEA15464CEB174022EA0B4E0BFB06FC2D
:1014300025EA06470EFB06F607FB0EFE0BFB07F739
:101440001EEB064E4CEB164C4FF000061EEB074E03
:101450004CEB174B18EB0B0840F1000018EB0E0B90
:1014600058EB000840F100008F1A4FF000013CBF1C
:10147000C943661B14BFB5EB040C00213CBFC94334
:10148000F61B4FEA17444EEA8E0E27EA04454FEA50
:101490001C4704FB07622CEA074C05FB07F70CFB13
:1014A00005F604FB0CFC16EB074642EB174216EB65
:1014B0000C4642EB1C421BEB060658EB0202414174
:1014C00046EA9E0601D5BDE80189B619524141EBB5
:1014D0000101A3F10103BDE801894FEA14454FEA78
:1014E000114724EA054621EA074C05FB07F406FBF1
:1014F00007F70CFB06F105FB0CFC11EB074144EB75
:1015000017444FEA124711EB0C4144EB1C4422EA0A
:10151000074C05FB07F206FB07F70CFB06F605FB7D
:101520000CFC16EB074642EB174216EB0C4642EB5F
:101530001C456A1854F1000148BF7047B619524162
:1015400041EB0101A3F10103704795F0000F37D083
:101550004FEA11424FEA144721EA024624EA074CB7
:1015600002FB07F106FB07F70CFB06F402FB0CFC81
:1015700014EB074441EB17414FEA154714EB0C44B9
:1015800041EB1C4125EA074C02FB07F506FB07F778
:101590000CFB06F602FB0CFC16EB074645EB174569
:1015A00016EB0C4645EB1C42121951F1000148BFE5
:1015B0007047B619524141EB0101A3F10103704795
:1015C0004FEA14454FEA114724EA054621EA074C41
:1015D00005FB07F106FB07F70CFB06F24FF00006D0
:1015E00005FB0CFC12EB074241EB174112EB0C42DE
:1015F00051EB1C4148BF7047921841EB0101A3F128
:1016000001037047FEE70000014800F090BA0000B7
:10161000A017002038B50D4B4FF400741C60002457
:101620009C60DC6008241C61094B040A1C70587023
:10163000080A9870D970100A18715A716B46044ADA
:101640000249044800F00AF938BD0000D81B002008
:1016500038000020A017002070B586B04FF6FF704C
:10166000ADF80000A5208DF80400344D1020ADF831
:101670000500287801AC8DF80700FF2204212046E0
:1016800000F0CCF88DF8080040F20130ADF8090008
:101690004FF40070ADF80C0029480078082802D0FB
:1016A0006C2805D00AE00820ADF80E00072003E002
:1016B0006C20ADF80E006B20ADF81000BDF80020D6
:1016C0000721204600F094F8ADF80000024603A878
:1016D000062100F08DF8ADF80000024619481621E9
:1016E00000F086F8ADF8000001AC0026207803F089
:1016F000F7FA641C761C072EF8D303AC002620787A
:1017000003F0EEFA641C761C062EF8D30D4C00266E
:10171000207803F0E5FA641C761C162EF8D36C468C
:101720000026207803F0DCFA641C761C022EF8D325
:101730002878401C287006B070BD000026000020EC
:10174000FC1C0020301B0020014800F051BC0000B0
:10175000C8190020014800F04BBC0000281A0020E6
:10176000014800F045BC0000881A002001681823D9
:10177000CAB2103AB2FBF3F2054B6FF30901032A28
:101780009B5CC36500D9091D816508467047000050
:10179000E065000810B5014600208B698A6A4FF0A9
:1017A000C07453B1B3F5005F15D072B1012A0CD0EB
:1017B000022A0AD0032A09D104E01AB1012A06D06C
:1017C000022A03D1C96AC90100D5012010BDC96A26
:1017D000A142FAD010BD002AF7D0012AF2D0022A85
:1017E000F3D0032AF3D010BD704772B6FEE70000B5
:1017F00010B558B1084C491E0BD310F8013B5340AB
:10180000DBB234F8133083EA1222F4E74FF6FF70AC
:1018100010BD104610BD00000067000810B5054C53
:1018200004E000BF10F8013B5340E25C491EF9D2CE
:10183000104610BD0066000890F82020012A07D04D
:10184000022A05D0416A41F480214162012070479B
:10185000006842690A43426100207047F0B590F881
:1018600020500468A468012D05D0022D03D0416AE0
:1018700041F480215DE014F0406F01D1E50055D5C1
:10188000C4F30164022C03D9416A41F4000150E021
:101890000125A5401D608D684FF4C0739DB1CE68D1
:1018A00035434E6845EAC605066803EB0417F55153
:1018B0004FF4C275076805EB04150E697E51097D6A
:1018C000012905D009E00E88CD6845EA4655EBE7C9
:1018D00001684E5946F480764E511179D579567982
:1018E00041EA056195792D0445EA062529434FF41F
:1018F000C676056806EB0416A9511178D57841EA39
:101900000561957852782D0445EA022211434FF47F
:10191000C475026805EB04155151006803EB04110E
:10192000425842F0010242500020F0BD416A41F4A9
:10193000001141620120F0BD10B590F82020012A6D
:1019400007D0022A05D0416A41F48021416201207A
:1019500010BD3B48D0F8002242F00102C0F800223E
:10196000D0F8002222F47C52C0F80022D0F80022E5
:101970004B6A42EA0322C0F800220A7D02F01F03EC
:1019800001229A40D0F81C329343C0F81C32CB6934
:10199000B3B9D0F80C329343C0F80C328C894B6841
:1019A00064F31F434C6900EBC404C4F840320C8953
:1019B0000B6864F31F434C6900EBC404C4F8443261
:1019C000CB69012B16D1D0F80C321343C0F80C327E
:1019D0000C884B6864F31F434C6900EBC404C4F8E3
:1019E00040320C89CB6864F31F434C6900EBC4049C
:1019F000C4F844328B69002BD0F804320ED0134364
:101A0000C0F804320B69002BD0F8143208D013430D
:101A1000C0F81432096A012904D008E09343EFE7C3
:101A20009343F5E7D0F81C121143C0F81C12D0F80C
:101A3000001221F00101C0F80012002010BD0000CA
:101A400000640040704730B590F82040012C05D06C
:101A5000022C03D0416A41F480215DE00468002932
:101A600055D02469A40754D04FF4D874056804EB0A
:101A700001142D5915F00405956005682D594ED0B7
:101A8000ED08556005682C5904F00204D4604FF449
:101A9000DA74056804EB01142D5905F00F05156182
:101AA00005682D59C5F30725956105682C59240C47
:101AB00054614FF4DC72046802EB0112A4581C70EC
:101AC0000468A458240A5C700468A458240C9C7010
:101AD0000468A258120EDA704FF4DE72046802EB4A
:101AE0000112A4581C710468A458240A5C7104688B
:101AF000A458240C9C710468A258120EDA71006874
:101B000081B1016941F020010161002030BDE4682C
:101B1000A8E7416A41F400114162012030BD6D0D1A
:101B20001560AFE7C16841F02001C160EDE72DE924
:101B3000F05F0546006800244669D0F80490876885
:101B4000D0F80CB0D0F810A0D0F81880F10748D029
:101B5000F90714D001218160B80703D5284600F0A9
:101B600040FA0CE0780702D54FF4006407E038072C
:101B700002D54FF4805402E0284600F031FAF8050F
:101B800016D529684FF480708860B80503D52846BB
:101B900000F029FA0CE0780502D544F4005407E07F
:101BA000380502D544F4804402E0284600F01AFAD1
:101BB000F80316D529684FF480308860B80303D540
:101BC000284600F012FA0CE0780302D544F40044F1
:101BD00007E0380302D544F4803402E0284600F0E0
:101BE00003FA300707D55FEACB6004D529681020D7
:101BF00044F40074C86070074FF0080707D55FEA27
:101C00000B7004D52868C760284600F057F9B00764
:101C100006D52868C068800702D0284600F050F931
:101C2000700607D55FEACA6004D52968102044F41D
:101C300080640861B00607D55FEA0A7004D5286899
:101C40000761284600F09CF9F00606D5286800696F
:101C5000800702D0284600F094F9B00308D55FEA67
:101C6000C96005D5296810204860284600F08AF927
:101C7000F00307D55FEA097004D528684760284655
:101C800000F0B4F9300446D55FEA497040D5F0055C
:101C900004D55FEAC87001D044F00104B00504D552
:101CA0005FEA887001D544F00204700504D55FEA4C
:101CB000487001D544F00404300529D518F0700FA0
:101CC00026D008F07000402815D006DC102809D076
:101CD00020280AD0302816D10AE050280ED06028DB
:101CE00011D10EE044F008040DE044F010040AE0C5
:101CF00044F0200407E044F0400404E044F0800491
:101D000001E044F480742868816921F070018161E8
:101D1000296804204860002C05D0686A2043686266
:101D20002846FFF78FFEBDE8F09F70B5040003D092
:101D300094F8200010B104E0012070BD204600F0AE
:101D400081F82068016841F00101016000F09EFB0C
:101D50000546052604E000F099FB401B0A2811D82F
:101D600020684068C007F6D02068016821F00201B1
:101D7000016000F08BFB05460BE000F087FB401B89
:101D80000A2806D9606A40F40030606284F8206056
:101D9000D2E7206840688007EFD4207E01282068C1
:101DA00001683DD021F080010160607E012820683B
:101DB000016838D021F040010160A07E0128206830
:101DC000016833D021F020010160E07E0128206805
:101DD00001682ED041F010010160207F01282068A9
:101DE000016829D021F008010160607F0128206886
:101DF000016824D021F004010160D4E90201084304
:101E0000D4E90412114308436168491E084321685C
:101E1000C86100206062012084F82000002070BDAD
:101E200041F08001C0E741F04001C5E741F02001E9
:101E3000CAE721F01001CFE741F00801D4E741F0F3
:101E40000401D9E710B586B0044614216846FEF7B0
:101E500043FC17492068884227D1164800210268B0
:101E600042F000720260006800F0007005901148B6
:101E70001038026842F0080202600068022200F096
:101E8000080005900320CDE90210CDE900020920E9
:101E900004906946084800F0F7F900220521142053
:101EA00000F080FB142000F06FFB06B010BD0000B6
:101EB0000064004040380240000C024070470000BF
:101EC00000B58FB006AB08AA0021FFF7BCFD089A49
:101ED00029492A48A2F20122072A18D2DFE802F093
:101EE000041925313131310000220A700188018145
:101EF000BDF8181049BA0180BDF81A1049BA4180DE
:101F0000BDF81C1049BA81809DF81E1081710FB078
:101F100000BD01224A70194A438902F10A01538225
:101F2000BDF8182052BA428119E002228A70134A81
:101F3000838A02F114019383BDF8182052BA828279
:101F40000DE0D2B2CA7002EB820200EB420130F81F
:101F500012300B81BDF818305BBA20F81230BDF892
:101F60001A0040BA4880BDF81C0040BA88809DF82D
:101F70001E008871CBE7000034000020901B002079
:101F8000704770477047000070B5044690F8200015
:101F9000012804D0606A40F40020606218E002204A
:101FA00084F820002068016821F00101016000F040
:101FB0006DFA05460EE000BF00F068FA401B0A28E3
:101FC00008D9606A40F400306062052084F820007F
:101FD000012070BD20684068C007EDD1606270BD0F
:101FE00070477047704770477047704770470000F0
:101FF0002DE9F84304464FF00009CDF800906348FE
:102000004FF41651A56D0068B0FBF1F72E6894F8F7
:102010005C10082000FA01F131420FD021680A68F3
:1020200052070BD50A6822F004020A6094F85C108B
:102030008840A860606D40F00100606594F85C1015
:102040004FF0010808FA01F0304208D021684969D0
:10205000090604D5A860606D40F00200606594F840
:102060005C1004208840304208D021680968890744
:1020700004D5A860606D40F00400606594F85C10C1
:1020800010208840304218D021680968090714D50B
:10209000A86020680168490304D50068000308D5DA
:1020A000A16C07E00168C90503D4016821F00801AB
:1020B0000160216C09B12046884794F85C1020200B
:1020C0008840304231D021680968C9062DD5A86002
:1020D00094F8350005282068016806D0490347D5E3
:1020E000006800031DD4616C1CE021F01601016042
:1020F0002068416921F080014161206C08B9A06C21
:1021000020B12068016821F00801016094F85C109A
:102110003F208840A86084F8358084F83490216D91
:102120001FE0E16B09B120468847606D00282BD085
:10213000606DC00714D0052084F835002068016860
:1021400021F0010101600098401C0090B84203D8C2
:1021500020680068C007F6D184F8358084F8349090
:10216000E16C002910D001B02046BDE8F0430847DB
:102170000168C905D5D4016821F01001016084F817
:10218000358084F83490CCE7BDE8F8832000002047
:102190002DE9F041044600F079F906465CB10220D1
:1021A00084F83500002584F834502068016821F057
:1021B000010101600DE00120BDE8F08100F066F949
:1021C000801B052805D920206065032084F8350090
:1021D000F2E720680068C007F0D122681168204843
:1021E0000140D4E901031843D4E9033633431843CB
:1021F00063691843A3691843E3691843236A1843C2
:102200000843616A042903D1D4E90B131943084335
:10221000106020684069666A20F0070130460E436E
:10222000012704280CD1A06A0643E06A40B1204689
:10223000FFF7B0FA20B14020606584F83570BAE746
:10224000206846612046FFF791FA94F85C203F2110
:1022500091408160656584F835700020ACE700002E
:102260003F8010F070B5044600F010F90546601C80
:1022700002D004480078044400F008F9401BA04252
:10228000FAD370BD140000202DE9F84FDFF8BCA18F
:10229000002201250AF1040B03264FF00F090BF170
:1022A000040E00BF0B6805FA02F42340A34270D16C
:1022B0000F7907F00307012F01D0022F16D187688D
:1022C0004FEA420806FA08FC27EA0C07D1F80CC0CE
:1022D0000CFA08FC4CEA070CC0F808C04768A74392
:1022E0000C79C4F3001494403C4344600C79E443FB
:1022F000A4070AD0C4684FEA420C06FA0CF7BC43A4
:102300008F6807FA0CF72743C7600C7904F00304C1
:10231000022C12D1D40800EB840CDCF820405707C3
:10232000FF0E09FA07F824EA0804D1F8108008FA29
:1023300007F848EA0408CCF8208004684FEA420C09
:1023400006FA0CF7BC430F7907F0030707FA0CF7FE
:10235000274307604C6814F4403F70D03C4C27681A
:1023600047F480472760246822F0030704F4804480
:102370000094384C07EB040CDCF8084897074FEA48
:10238000177809FA08F7BC43334FB84202D1002747
:1023900024E054E0314FB84201D101271EE0304F14
:1023A000B84201D1022719E02E4FB84201D10327CC
:1023B00014E02D4FB84201D104270FE02B4FB84253
:1023C00001D105270AE02A4FB84201D1062705E0CE
:1023D000284FB84201D1072700E0082707FA08F77D
:1023E0002743CCF80878DAF800405746D1F804C003
:1023F0009C435FEACC3C00D51C433C60DBF80040CA
:102400005F46D1F804C09C435FEA8C3C00D51C4376
:102410003C60DEF800407746D1F804C09C435FEA98
:10242000CC2C00D51C433C60084F0C373C68D1F8DD
:1024300004C09C435FEA8C2C00D51C433C60521CBA
:10244000102AFFF42FAFBDE8F88F0000003C0140D8
:1024500044380240003001400000024000040240C5
:1024600000080240000C024000100240001402402C
:1024700000180240001C02400069084000D0012002
:1024800070470AB1816170470904FBE70148806821
:10249000704700001400002002488168027811444F
:1024A00081607047140000200B4810B5016841F4AA
:1024B00000710160016841F480610160016841F4CC
:1024C00080710160032000F08DF80F2000F006F805
:1024D00000F03EF8002010BD003C024010B501465F
:1024E00088B000221C2000F05DF81C2000F04CF8A1
:1024F00014480024016841F001010160006805A949
:1025000000F001000690684600F018F900F036F976
:102510000D494000B0FBF1F10C484FF08042491EDC
:10252000026040F2E732C0E90324C0E9011400F080
:10253000E9FC10B1012008B010BD044800F042FDD4
:10254000F9E700004038024040420F00E81A00203E
:102550000C4882B0016841F480410160006800F4D9
:10256000804000900748001F016841F080510160E1
:102570000068002200F0805000900F21901E02B0F1
:1025800000F010B844380240002809DB00F01F02B8
:10259000012191404009800000F1E020C0F80011C5
:1025A00070470000F0B40E4B1B680C46C3F30223C7
:1025B000C3F10705042D00D90425191D072901D2EF
:1025C000002300E0DB1E012606FA05F1491E21402A
:1025D00099409E40761E16403143F0BC02F04BBC41
:1025E0000CED00E0064900F0070208684FF6FF0313
:1025F000184040EA0220034A104308607047000078
:102600000CED00E00000FA052DE9F0470E4605004C
:1026100065D0DFF81481D8F80000F7B200F00700A9
:10262000B04207D288F80070D8F8000000F0070028
:10263000B04254D128683D4C810712D5400703D5DC
:10264000206840F4E05020602878000703D5206817
:1026500040F4604020602068A96820F0F000084342
:1026600020602878C0072DD03049686808390128D3
:1026700012D0022813D0032811D009688907002935
:102680002DDA216821F0030101432160FFF7FEFEEE
:10269000814641F2883A0EE009688903EFE709684C
:1026A0008901ECE7FFF7F2FEA0EB0901514502D9E1
:1026B0000320BDE8F0872068696800F00C00B0EBEB
:1026C000810FEFD1D8F80010404601F00701B14268
:1026D00007D90770006800F00700B04201D0012060
:1026E000E7E72878400705D52068E96820F4E0503E
:1026F000084320602878000706D52068296920F45F
:10270000604040EAC100206000F058F82168084AA3
:10271000C1F30311515CC8400649086006480068CF
:10272000FFF7DCFE0020C4E7003C0240083802400E
:10273000E865000820000020180000200F22026039
:102740000C4A136803F003034360136803F0F003BB
:102750008360136803F4E053C36012684FF4E053DE
:1027600003EAD20202610448006800F00700086032
:102770007047000008380240003C02400448054908
:1027800000680968044AC1F38221515CC84070475F
:102790002000002008380240F86500080448054978
:1027A00000680968044AC1F34231515CC84070476F
:1027B0002000002008380240F8650008154810B5D0
:1027C000006810F00C02144813D01449042A0FD0EA
:1027D000082A0ED10F4C241F2268236802F03F0202
:1027E0005B0207D52068C0F38810A0FB010106E05A
:1027F000084610BD2168C1F38811A1FB0001002328
:10280000FDF7BEFD2168C1F30141491C4900B0FB41
:10281000F1F010BD083802400024F400001BB7009E
:102820002DE9F84F04006ED02078DFF84C93C007F4
:10283000A9F104054AD009F104000168C1F381013E
:10284000012908D00068C0F3810002280AD1D9F814
:102850000000400206D52868800337D5606800284C
:10286000E1D033E06068B0F5803F10D0B0F5A02F24
:10287000286810D020F480302860286820F4802058
:1028800028606068A8B1FFF701FE06460DE02868E1
:1028900040F48030F4E740F480202860F7E700BF80
:1028A000FFF7F4FD801B642873D828688003F7D5F0
:1028B0000CE0FFF7EBFD064605E000BFFFF7E6FD85
:1028C000801B6428F0D828688003F7D42078DFF8CC
:1028D000AC8280074FF0000A3ED5A748001D016872
:1028E00011F00C0F08D00068C0F3810002280BD152
:1028F000D9F80000400207D42868800716D5E068A0
:10290000012800D112E033E1E068B8B10120C8F835
:102910000000FFF7BBFD064605E000BFFFF7B6FD70
:10292000801B0228C0D828688007F7D5286821694D
:1029300020F0F80040EAC10028600DE0C8F800A0CF
:10294000FFF7A4FD064604E0FFF7A0FD801B022868
:102950001FD828688007F7D42078000722D5864F33
:1029600087486169703771B101210160FFF78EFD01
:10297000064604E0FFF78AFD801B022809D8386864
:102980008007F7D50EE0C0F800A0FFF77FFD0646F0
:1029900005E082E0FFF77AFD801B02287DD83868C9
:1029A0008007F7D42078400768D5DFF8CCB100273E
:1029B0000BF13C0BDBF80000C0000BD4DBF800107F
:1029C00041F08051CBF80010DBF80000012700F047
:1029D000805000906B4E3068C00510D4306840F4D1
:1029E00080703060FFF752FD009005E0FFF74EFD6C
:1029F0000099401A022850D83068C005F6D55E4EBE
:102A0000A0686C3601280FD00528306810D020F05F
:102A100001003060306820F004003060A068B8B178
:102A2000FFF734FD00900FE0306840F00100F4E75C
:102A300040F004003060F7E7FFF728FD0099411AE5
:102A400041F28830814266D830688007F4D50EE0C4
:102A5000FFF71CFD009007E0FFF718FD0099411AF1
:102A600041F28830814256D830688007F4D42FB1C3
:102A7000DBF8001021F08051CBF80010A069C8B33A
:102A80003D49091D0968C1F3810102294AD0022884
:102A9000504607D0C8F8600000E03CE0FFF7F6FCC5
:102AA00004463BE04746C8F86000FFF7EFFC0646E7
:102AB00005E000BFFFF7EAFC801B02282BD828683E
:102AC0008001F7D4D4E907010843A16A2E4A4908D6
:102AD00002EB0141626A41EA8211084394F82C102A
:102AE00040EA0161C9F8001001203866FFF7CEFC0A
:102AF000044606E03EE000BFFFF7C8FC001B0228CA
:102B000009D828688001F7D534E000BFFFF7BEFC84
:102B1000001B022802D90320BDE8F88F2868800135
:102B2000F4D427E00128F7D0D9F80000E26900F4D6
:102B3000800191421CD1226A00F03F01914217D1DD
:102B400047F6C071626A0140B1EB821F10D1A26AE0
:102B50004FF0FF3300F4403103EB5202B1EB024F70
:102B600006D194F82C1000F07060B0EB016F01D02A
:102B70000120D1E70020CFE704380240000047429F
:102B8000800E4742007000400000FFFF70B5040057
:102B900009D0606A002540B125616561A56294F89D
:102BA000510040B10CE0012070BD6068B0F5827F3B
:102BB000F4D0E561F2E784F85050204600F044F884
:102BC000022084F851002068016821F04001016072
:102BD000A088218900F4827001F404410843A1898E
:102BE00001F400610843217C01F002010843217DCA
:102BF00001F001010843218B01F400710843217F9A
:102C000001F03801084394F8201001F080010843D6
:102C1000218D01F40051084321680860A069042156
:102C200001EA104094F8241001F0100108432168D3
:102C300048602068C16921F40061C16165650120B7
:102C400084F85100002070BD10B586B004461421F0
:102C50006846FDF741FD14492068884221D1134898
:102C60000021026842F480420260006800F4804063
:102C700005900E481038026842F0020202600068B7
:102C800000F0020005904FF4604000900220CDE972
:102C90000101032003900520049069460448FFF7D2
:102CA000F3FA06B010BD0000003800404038024082
:102CB000000402402DE9F84F044690F85000002728
:102CC0001D461646894601280DD04FF0010B84F8A9
:102CD00050B0FFF7DBFB804694F85100BA4601285C
:102CE00004D0022793E00220BDE8F88FB9F1000F6D
:102CF00073D0002E71D0032084F85100C4F854A082
:102D0000C4F83090A686E686C4F838A0A4F83CA0A3
:102D1000A4F83EA0C4F844A0C4F840A0A068B0F550
:102D2000004F09D12068016821F04001016020684E
:102D3000016841F48041016020680168490603D4BC
:102D4000016841F040010160E068B0F5006F606823
:102D500003D030B3012E24D041E008B1012E1CD1A4
:102D6000206B21680088C86006E0206881688907B8
:102D700009D5216B0988C160206B801C2063E08E1F
:102D8000401EE08609E0FFF781FBA0EB0800A842A7
:102D900002D3681C01D031E07DB3E08E0028E4D17D
:102DA00020E0206B21680078087306E020688168C5
:102DB000890709D5216B09780173206B401C2063BA
:102DC000E08E401EE0860AE0FFF760FBA0EB080003
:102DD000A84203D3681C02D010E017E06DB1E08E6A
:102DE0000028E3D142462946204601F03DFC08B1C7
:102DF00020206065A06818B106E0FFE7032706E021
:102E00002068C16880680090606D00B1012784F877
:102E100051B084F850A0384666E77047704710B547
:102E200090F83C20012A22D0012280F83C20CA6878
:102E30008C6822F4407222434C6822F48062224360
:102E40000C6822F4006222430C6922F4805222436F
:102E50004C6922F400522243C969002322F48042C3
:102E60000A4301684A6480F83C30002010BD02200B
:102E700010BD000070B590F83C20012A32D001242A
:102E800080F83C40022280F83D2003685A689D6823
:102E900022F070060A6832435A60134B02689A4265
:102EA00014D0B2F1804F11D0104B9A420ED0104B7B
:102EB0009A420BD00F4B9A4208D00F4B9A4205D042
:102EC0000E4B9A4202D00E4B9A4204D1496825F02B
:102ED00080031943916080F83D40002180F83C1048
:102EE000084670BD022070BD000001400004004093
:102EF00000080040000C0040000401400040014078
:102F00000018004010B5040003D094F83D0010B143
:102F100007E0012010BD002084F83C00204600F0AE
:102F20001FF8022084F83D00211D206801F0A2FC5A
:102F3000012084F8460084F83E0084F83F0084F8BD
:102F4000400084F8410084F8420084F8430084F88B
:102F5000440084F8450084F83D00002010BD0000C6
:102F600008B5154A0168154891420ED1016841F033
:102F7000020101600068002200F0020000900521BB
:102F80001D20FFF70FFB1D2010E00D4A914211D1CB
:102F9000016841F0040101600068002200F00400B3
:102FA000009005211E20FFF7FDFA1E20BDE8084015
:102FB000FFF7EABA08BD00000004004040380240B4
:102FC0000008004090F83D10012901D00120704711
:102FD000022180F83D100168CA6842F00102CA600F
:102FE00000681149884214D0B0F1804F11D00F49C8
:102FF00088420ED00E4988420BD00E49884208D034
:103000000D49884205D00D49884202D00C498842BA
:1030100004D1816801F00701062903D0016841F05D
:1030200001010160002070470000014000040040E1
:1030300000080040000C0040000401400040014036
:10304000001800400168CA6822F00102CA600168E5
:103050000A6A41F211131A4207D10A6A9B101A42F6
:1030600003D10A6822F001020A60012180F83D10B4
:103070000020704770B5044690F83C0000250128F8
:1030800017D0012684F83C60022084F83D002068B7
:10309000826822F0770222F47F428260086850281A
:1030A00038D00DDC20284FD005DC90B3102811D18A
:1030B0004AE0022070BD302846D040280AD13BE0CB
:1030C00060282FD070280DD0B0F5805F03D0B0F508
:1030D000005F12D0012584F83D60002084F83C0098
:1030E000284670BDCB68D1E90121206801F033FC8E
:1030F0002068816841F0770109E0CB68D1E90121BE
:10310000206801F028FC2068816841F480418160DA
:10311000E1E719E0CA684968206801F037FD5021ED
:10312000206806E0CA684968206801F040FD602117
:10313000206801F01AFCCEE7CA684968206801F0EF
:1031400025FD40212068F4E7226801461046F0E79B
:10315000704770B50446006801694FF00005C94327
:10316000890715D4C168C943890711D4E91E0161D3
:1031700001202077206880698007204602D0FFF771
:10318000E7FF04E000F0DAF8204600F08BF925773D
:1031900020680169C943490717D4C168C943490771
:1031A00013D46FF004010161022020772068806948
:1031B00010F4407F204602D0FFF7CAFF04E000F081
:1031C000BDF8204600F06EF9257720680169C943F3
:1031D000090716D4C168C943090712D46FF0080162
:1031E0000161042020772068C0698007204602D052
:1031F000FFF7AEFF04E000F0A1F8204600F052F91E
:10320000257720680169C943C90617D4C168C94335
:10321000C90613D46FF010010161082020772068DF
:10322000C06910F4407F204602D0FFF791FF04E010
:1032300000F084F8204600F035F925772068016910
:10324000C943C90708D1C168C943C90704D1891E48
:103250000161204600F000FA20680169C9430906AF
:1032600009D4C168C943090605D46FF08001016122
:103270002046FFF7D2FD20680169C943490609D4F9
:10328000C168C943490605D46FF040010161204679
:1032900000F04BFA20680169C94389060BD4C16864
:1032A000C943890607D46FF0200101612046BDE8BB
:1032B0007040FFF7B3BD70BD30B587B00446142130
:1032C0006846FDF709FA2468174D002117480223C4
:1032D0000322AC4211D1046844F010040460006879
:1032E000CDE9021200F0100005909802CDE900032C
:1032F0000120049069460E4812E00E4DAC4211D1F7
:10330000046844F0040404600068CDE9021200F08F
:10331000040005904020CDE9000369460492064868
:10332000FEF7B2FF07B030BD000001403038024068
:10333000001002400004014000080240704770B5D0
:10334000044690F83C0000260D4601280FD00120CD
:1033500084F83C006AB1042A1DD0082A2FD00C2A18
:103360003FD00126002084F83C00304670BD02208A
:1033700070BD206801F002FB2068816941F00801FE
:1033800081612068816921F004018161206881697F
:103390002A69114311E0206801F020FB206881694F
:1033A00041F4006181612068816921F4806181615B
:1033B000206881692A6941EA02218161D2E7206897
:1033C00001F042FB2068C16941F00801C161206839
:1033D000C16921F00401C1612068C1692A691143F2
:1033E00011E0206801F064FB2068C16941F40061CC
:1033F000C1612068C16921F48061C1612068C1692F
:103400002A6941EA0221C161ACE710B5040003D08A
:1034100094F83D0010B107E0012010BD002084F8B1
:103420003C00204600F01EF8022084F83D00211DDB
:10343000206801F01FFA012084F8460084F83E005D
:1034400084F83F0084F8400084F8410084F842008A
:1034500084F8430084F8440084F8450084F83D0073
:10346000002010BD08B50C4A01680C48914207D1F4
:10347000016841F001010160006800F0010009E00D
:10348000074A914207D1016841F0020101600068DA
:1034900000F00200009008BD0000014044380240E6
:1034A000000401407047000030B5002504460222A8
:1034B00049B1042912D008294CD094F841000128C0
:1034C00053D0012030BD94F83E000128F9D184F892
:1034D0003E202068C26842F0020209E094F83F00F2
:1034E0000128EED184F83F202068C26842F004022F
:1034F000C2600122206801F021FA21492068214A96
:10350000884201D0904203D1436C43F400434364AA
:103510002068884213D0B0F1804F10D01A498842F9
:103520000DD01A4988420AD01949884207D09042E2
:1035300005D01849884202D01749884204D18168D1
:1035400001F00701062903D0016841F00101016083
:10355000284630BD94F840000128B2D184F84020BC
:103560002068C26842F00802C2E784F841200C29B2
:1035700001D00125ECE72068C26842F01002B7E7ED
:103580000000014000040140000400400008004029
:10359000000C0040004001400018004070B50D00D4
:1035A00004464FF0000607D0042D0AD0082D0DD098
:1035B0000C2D10D001263FE02068C16821F00201E7
:1035C0000DE02068C16821F0040108E02068C168AE
:1035D00021F0080103E02068C16821F01001C160FA
:1035E00000222946206801F0A9F9194B41F2111176
:1035F00020688A10984202D0164B984209D1036A7B
:103600000B4206D1036A134203D1436C23F40043F7
:1036100043642068036A0B4206D1016A114203D158
:10362000016821F00101016001203DB1042D08D0A5
:10363000082D09D084F84100304670BD84F83E0062
:10364000FAE784F83F00F7E784F84000F4E7000069
:1036500000000140000401402DE9F04104461848F3
:103660000126184F6FF0020584420DD100680169F0
:10367000C943890707D4056104211348FFF78EFF6A
:103680000F48FFF7DFFC3E70104884420DD1006800
:103690000169C943890707D4056100210C48FFF778
:1036A0007DFF0A48FFF7CEFC7E702068B0F1804FA6
:1036B00003D1BDE8F041FEF7EFBEBDE8F0810000A8
:1036C000681800202400002020180020B0180020D6
:1036D000F818002070B5044690F83C00012812D07C
:1036E000012584F83C50022084F83D00204601F07A
:1036F00007FA01004FF0000007D084F83D5084F82D
:103700003C00012070BD022070BD2168CA6822F013
:103710004002CA602168CA6822F48042CA6084F804
:103720003D5084F83C00002070BD704770B5040027
:1037300004D094F83D00002510B106E0012070BDD2
:1037400084F83C50204600F023F8242084F83D0003
:103750002068C16821F40051C160204601F03AFAA6
:103760002068016921F4904101612068416921F0DC
:103770002A0141612068C16841F40051C16025649B
:10378000202084F83D0084F83E00002070BD000039
:103790002DE9F04387B0064614216846FCF79CFFEC
:1037A0004F484E4D31680222032300240715A942D9
:1037B00039D14B4910310D6845F480250D600968F9
:1037C00001F480210591016841F004010160006865
:1037D000694600F00400059098028DE81500072066
:1037E000CDE903303F48FEF74FFD404D3E4828608D
:1037F0007804C5E90104C5E903476C614FF4403022
:10380000AC61C5E9074028466C62FEF7C1FC08B10F
:10381000FDF7EBFFB563002205212720AE63FEF71D
:10382000C1FE272055E0324DA94254D12C49143114
:103830000D6845F020050D60096801F02001059133
:10384000016841F0400101600068694600F04000F5
:1038500005904FF484408DE815000820CDE9033031
:103860002448FEF711FD214D234860354FF02068B4
:103870002860C5E90184C5E903476C614FF400394C
:10388000AC61C5E9074928466C62FEF781FC08B1C6
:10389000FDF7ABFFB563AE63144D1748C035783004
:1038A000E5E80208402091C5104845F81449C030A9
:1038B000AC61C5E907496C62FEF76AFC08B1FDF727
:1038C00094FF7563002205214720AE63FEF76AFE70
:1038D0004720FEF759FE07B0BDE8F08300480040DE
:1038E000303802400008024028600240C819002019
:1038F000001401400018024028640240FEE7000066
:103900000F4810B50D4901600321416000214FF4BB
:1039100010228160C0E903124FF400124261017667
:1039200041768176C17601774177FEF7FEF900286E
:1039300003D0BDE81040FDF758BF10BD0064004043
:10394000A0170020154808B5016841F40011016076
:10395000016801F400110091016841F480010160E7
:103960000068002200F48000009005210C20FEF782
:1039700019FE0C20FEF708FE002205213920FEF773
:1039800011FE3920FEF700FE002205214520FEF73A
:1039900009FEBDE808404520FEF7F6BD303802407C
:1039A00010B5AAB01C2221496846FCF741FE00214F
:1039B000684601F041FC1E4C1C491C2220601C3151
:1039C00007A8FCF735FE002107A801F035FC1749D0
:1039D00060601C2238310EA8FCF72AFE00210EA8D8
:1039E00001F02AFC1149A0601C22543115A8FCF7F3
:1039F0001FFE002115A801F01FFC0C49E0601C22ED
:103A000070311CA8FCF714FE00211CA801F014FC66
:103A10000649E0601C228C3123A8FCF709FE002136
:103A200023A801F009FC20612AB010BD3865000808
:103A3000000000202DE9F04F87B014216846FCF704
:103A40004BFE4A480025016841F0400101600168D1
:103A500001F040010591016841F001010160016838
:103A600001F001010591016841F008010160016860
:103A700001F008010591016841F00401016001684D
:103A800001F004010591016841F480710160016851
:103A900001F480710591016841F020010160016825
:103AA00001F020010591016841F080010160016889
:103AB00001F080010591016841F010010160016889
:103AC00001F010010591016841F0020101600068F8
:103AD000DFF89CB000F00200059000220321584658
:103AE000FEF7CFFC4FF48078002241462148FEF7D4
:103AF000C8FC4FF4C049002249461F48FEF7C1FCEC
:103B00004FF4805A002251461C48FEF7BAFCC020F0
:103B100002268DE8610069461948FEF7B5FB0327C8
:103B20000124CDE90074CDE9024769465846FEF705
:103B3000ABFB01AACDF8008082E8700069460D4811
:103B4000FEF7A2FB01AACDF8009082E8700069465A
:103B50000948FEF799FBCDE900A4CDE90247694683
:103B60000648FEF791FB07B0BDE8F08F3038024001
:103B7000001402400008024000100240000402400D
:103B8000002002400F4810B50D4901604FF48271CA
:103B9000416000218160C1604FF400720161C0E9A1
:103BA0000512C1610162416281620A21C162FEF7B0
:103BB000EDFF002803D0BDE81040FDF716BE10BD94
:103BC00000380040C817002070B592B000240F9450
:103BD0001C2108A81094FCF77FFD20216846FCF703
:103BE0007BFD254D2348802628608620C5E90104F9
:103BF0006320C5E90304C5E905462846FFF705FC2F
:103C000008B1FDF7F2FD2020CDE90F060FA91A48F3
:103C1000FFF730F908B1FDF7E8FD60200890322089
:103C200009900220CDE90A040C940D94042208A9FD
:103C300011480E94FFF783FB08B1FDF7D6FD286805
:103C4000816921F40061816100944FF40050CDE955
:103C50000440029401940394694607480794FFF7CF
:103C6000DEF808B1FDF7C1FD0348FFF725FB12B0F0
:103C700070BD0000000001402018002010B58CB07D
:103C80000024059406940794142168460894FCF7D0
:103C900023FD1948099417490A94C0E900144FF606
:103CA000FF71C0E9024104618461FFF72BF908B19B
:103CB000FDF79BFD4FF48050059005A90E48FFF7D6
:103CC000D9F908B1FDF791FD0520CDE90004694659
:103CD0000948FFF7FFFC08B1FDF787FD099409A922
:103CE00005480A94FFF7C6F8002801D0FDF77DFDCE
:103CF0000CB010BD000400406818002010B58CB056
:103D00000024059406940794142168460894FCF74F
:103D1000E3FC1A48099418490A94C0E900144FF6C4
:103D2000FF71C0E9024104618461FFF7EBF808B15B
:103D3000FDF75BFD4FF48050059005A90F48FFF794
:103D400099F908B1FDF751FD052000903020019050
:103D500069460A48FFF7BEFC08B1FDF746FD099425
:103D600009A906480A94FFF785F8002801D0FDF755
:103D70003CFD0CB010BD000000080040B018002051
:103D800070B592B000240F941C2108A81094FCF781
:103D9000A3FC20216846FCF79FFC254D2348802684
:103DA00028608620C5E901046320C5E90304C5E94C
:103DB00005462846FFF729FB08B1FDF716FD202030
:103DC000CDE90F060FA91A48FFF754F808B1FDF71F
:103DD0000CFD60200890322009900220CDE90A04F1
:103DE0000C940D94002208A911480E94FFF7A7FA2D
:103DF00008B1FDF7FAFC2868816921F008018161AA
:103E000000944FF40050CDE90440029401940394CF
:103E1000694607480794FFF702F808B1FDF7E5FC8B
:103E20000348FFF749FA12B070BD000000040140DA
:103E3000F81800200D4810B50B4901600C4941608D
:103E400000214FF480628160C0E903120422C0E9BE
:103E50000521C161FFF76AFC002803D0BDE81040CE
:103E6000FDF7C3BC10BD0000004800404019002011
:103E7000A08601000C4810B50A4901604FF4E131F9
:103E80004160002181600C22C160C0E9041281619F
:103E9000C161FFF74BFC002803D0BDE81040FDF7DF
:103EA000A4BC10BD0014014084190020FEE7FEE709
:103EB00030B40021084B0A465FF0000003EBC00459
:103EC000401CC0B262548028F8D3491CC9B20829EA
:103ED000F2D330BC00F066B9D9250020CA0801F041
:103EE000070301219940044B03EBC003985C61EA8E
:103EF0000000C04398547047D925002010B558B130
:103F0000012810D10021C02000F006FA0021A020D5
:103F1000BDE8104000F000BA0021C82000F0FCF914
:103F20000021A120F4E710BD2DE9F0430D4606461F
:103F3000802A13D8402B11D896420FD89D420DD815
:103F40005C1B96420CD1002706E0E819C1B230464E
:103F500000F032F87F1CFFB2BC42F6DCBDE8F08313
:103F6000971B9D420BD1002406E03019C0B22946B0
:103F700000F022F8641CE4B2A742F6DCEEE7E1B2FE
:103F800001EB81014900F8B2B1FBF0F000F0FF084D
:103F900000244FF00A090BE014FB08F1B1FBF9F023
:103FA0002844C1B23019C0B200F006F8641CE4B273
:103FB000A742F1DCD2E70000CA0801F007030121A3
:103FC0009940034B03EBC000835C0B438354704761
:103FD000D925002010B5674C00222DED028B02215F
:103FE0002046FEF74EFAC820FEF73CF901220221D6
:103FF0002046FEF746FA0021AE2000F08DF90021A0
:10400000084600F089F90021102000F085F9002110
:10401000402000F081F90021812000F07DF900218D
:10402000CF2000F079F90021A12000F075F90021DE
:10403000C82000F071F90021A62000F06DF90021E0
:10404000A82000F069F900213F2000F065F9002167
:10405000D32000F061F90021084600F05DF900214D
:10406000D52000F059F90021802000F055F90021F9
:10407000D92000F051F90021F12000F04DF9002184
:10408000DA2000F049F90021122000F045F9002162
:10409000DB2000F041F90021402000F03DF9002133
:1040A000202000F039F90021022000F035F900212C
:1040B0008D2000F031F90021142000F02DF90021AD
:1040C000A42000F029F90021A62000F025F9002104
:1040D000AF2000F021F9FFF7EBFE0120FFF70EFF04
:1040E000FFF7E6FE02210C2323A2084600F0F4F8B5
:1040F0000C2323A21021022000F0EEF80C2322A2B0
:104100000221462000F0E8F80C2321A224210220FD
:1041100000F0E2F80C2320A23221022000F0DCF8AB
:104120002023802219460020FFF7FEFE9FED1C8A07
:104130000C220221B0EE480A192000F0AFF80C2240
:10414000B0EE480A1021192000F0A8F80C22B0EEB9
:10415000480A2421322000F0A1F832210C22B0EECE
:10416000480A084600F09AF8BDEC028BBDE8104002
:1041700000F018B8001402404D313A200000000051
:104180004D323A200000000049443A20000000006F
:1041900050697463683A20005961773A0920000039
:1041A0000000000070B5114E002400BF04F1B00003
:1041B000C0B2002100F0B0F80021084600F0ACF8D1
:1041C0000021102000F0A8F85FF0000506EBC50004
:1041D0000121005D00F0A0F86D1CEDB2802DF5D33B
:1041E000641CE4B2082CE1D370BD0000D925002086
:1041F0002DE9FF4F1D460C468946580700D0012087
:1042000000EBD500690810FB01F0203A00F0FF0A2E
:1042100002F0FF0B002637E00C2D12D0102D16D027
:10422000182D33D11A490BEBCB0001EB80004FF076
:104230000008875D2146380600980CD5FFF7BCFEC4
:104240000BE014480BEB4B0100EB8100EFE7124948
:1042500001EB0B10EBE7FFF741FE7806641C070E3D
:10426000E4B2A4EB0900A84205D100984C46401CDA
:10427000C0B2009006E008F1010000F0FF08B8F1BC
:10428000080FD7D3761CF6B25645C5D3BDE8FF8FCD
:104290006473000800690008746D000870B5064674
:1042A00014460D4610EE100A02F0CEF841EC100B49
:1042B00006A153EC102B0748FCF7DAF823462946F1
:1042C0003046BDE87040034A00F006B8252E33663C
:1042D00000000000A40000202DE9F0411E46154614
:1042E00088460446C3F180070FE033464146204626
:1042F000FFF77EFF04EB5600C4B2A74204DA08EBD6
:104300000600022400F0FF086D1C2A78A2F12000AC
:104310005E28EAD9BDE8F0812DE9F341124D6C46E3
:1043200009B1012200E0002201212846FEF7A9F888
:104330000E4F4FF48056002231463846FEF7A1F862
:104340004FF47A73012221460948FEF7B3FC01229B
:1043500031463846FEF795F8012211462846FEF709
:1043600090F8BDE8FC810000001402400004024007
:10437000C8170020A0B1D0ED121AC0ED131A90EDAD
:10438000111A80ED121AC0ED080A80ED090A30EE0C
:10439000C00A80ED110A017829B1012951D08EE0BF
:1043A0009FED480A7047D0ED070AD0ED0B1AB7EE23
:1043B000002AD0ED012A60EEA11A72EE600A60EECA
:1043C000A20A40EE801AC0ED0B1AD0ED0C0AD0ED17
:1043D000022A42EE800A30EE410AC0ED0C0AD0ED0E
:1043E0000F2AC0ED102AD0ED0E2AC0ED0F2A80ED65
:1043F0000E0AD0ED062A90ED0D1A32EE622A22EE58
:10440000811AD0ED032A22EE222A02EE001A80ED54
:104410000D1A90ED050AF4EEC00AF1EE10FA09DC6F
:10442000B1EE400AF4EEC00AF1EE10FA02D390EDBC
:104430000C0A01E080ED0C0A31EE800A30EE010A30
:104440002BE070EE410A90ED012A60EE820AC0ED89
:104450000B0A90ED022A22EE002A80ED0C2AD0ED04
:104460000F2A70EE820AC0ED102AD0ED0E2AC0EDA0
:104470000F2AF0EE002A01EE620A30EE210A80EDEA
:104480000E0A90ED031A21EE000A80ED0D0A30EEBF
:10449000800AD0ED0A0A30EE200A80ED0A0AD0ED3B
:1044A000040AB4EEE00AF1EE10FA06DCF1EE600A5E
:1044B000B4EEE00AF1EE10FA01D2C0ED0A0A90ED76
:1044C0000A0A70470000000000282CD0002A2AD0D9
:1044D000017092ED001A80ED011A92ED011A80ED43
:1044E000021A92ED021A80ED031A80ED040A9FED84
:1044F0000E0AC0ED050A80ED060A80ED070A80ED80
:10450000100A80ED0F0A80ED0E0A80ED0A0A80ED98
:104510000D0A80ED0C0A80ED0B0A80ED130A80ED88
:10452000120A80ED110A7047000000002DE9F047E3
:1045300016460D462A4B00272A4C2B492B4A9842F7
:1045400023D12B4E3078012848D14FF400594946E9
:1045500090461046FDF790FF012805D04946404699
:10456000FDF78AFF18B105E02068401C01E02068D3
:10457000401E20601F4837706D1E0168CD62C56007
:10458000FEF720FD04211C4824E0884226D11B4D63
:104590002878012822D14FF4804949469046104698
:1045A000FDF76AFF012805D049464046FDF764FF44
:1045B00018B105E06068401C01E06068401E606062
:1045C0000F482F70761E0168CE62C660FEF7FAFCB7
:1045D0000C480021BDE8F047FEF766BFBDE8F08754
:1045E000000001402C0000200004014000100240A7
:1045F000240000206818002020180020250000203A
:10460000B0180020F818002030B5144B1C686569FC
:1046100045F0400565611B68DC6844F01004DC600F
:104620000F4B1C68256825F0010525601C6825686E
:10463000ED07F7D11D680B4CAC601C68E060186892
:104640000161186842601868016841F480210160C6
:104650001868016841F00101016030BD4019002077
:10466000C81900200448004038B504461248134BCE
:104670000068B0FBF3F04FF47A7358430090606821
:10468000B0F5827F0DD10B4600920022802120469A
:1046900000F016F870B1606D40F0200060650320F6
:1046A00038BD009830B1401E009020688068C0433B
:1046B0000006F6D5002038BD2000002000366E012F
:1046C0002DE9F8431E46914688460446089DFDF7AD
:1046D000DDFE401B351AFDF7D9FE07462548006868
:1046E000C0F3CB30684338E0701C37D0FDF7CEFE06
:1046F000C01BA84203D215B1009860B32CE020681B
:10470000416821F0E00141606068B0F5827F0BD123
:10471000A068B0F5004F02D0B0F5806F04D12068DA
:10472000016821F040010160A06AB0F5005F09D185
:104730002068016821F4005101602068016841F49B
:1047400000510160012084F85100002084F85000DD
:104750000320BDE8F8830025401E00902068816892
:1047600038EA010004D000214945BDD10020F0E71E
:104770000121F9E720000020012000F051FDFBE7B6
:1047800010B5502080F31188BFF34F8FBFF36F8FA8
:1047900001F076FD18B104494FF080500860002008
:1047A00080F3118810BD000004ED00E030B593B037
:1047B00030216846FBF790FF14210CA8FBF78CFF13
:1047C0001D480025016841F080510160006800F03B
:1047D000805011901948016841F4804101600068DF
:1047E000022400F480401190012000900004019008
:1047F0008001CDE9064006200890A820CDE90904F3
:1048000004200B906846FEF70BF808B172B6FEE77D
:104810000CA90F2081E831004FF4A0500F904FF405
:104820008050109005210CA8FDF7EEFE002801D065
:1048300072B6FEE713B030BD403802400070004051
:104840000248016841F470010160704788ED00E0A2
:104850000148FEF77EBC0000E81A00200148FEF780
:1048600078BC0000681800200148FEF772BC000008
:10487000B0180020F0B50268254C264D264E274F73
:10488000274B4FF0804CA04209D0604507D0A8428A
:1048900005D0B04203D0B84201D0984204D122F0F2
:1048A000700E4A6842EA0E02A0421BD0604519D041
:1048B000A84217D0B04215D0B84213D0984211D0B8
:1048C000184DA8420ED0184DA8420BD0174DA84243
:1048D00008D0174DA84205D0164DA84202D0164D5B
:1048E000A84203D122F44075CA682A434D6922F0D8
:1048F00080022A4302608A68C2620A688262A04219
:1049000001D0984201D10969016301214161F0BDE3
:10491000000001400004004000080040000C00407E
:1049200000040140004001400044014000480140B3
:1049300000180040001C00400020004010B501F0AD
:104940001F030121046A99408C430462016A9A4062
:104950001143016210BD10B5846842EA032224F4B9
:104960007F440A432243826010BD826822F07002B5
:104970000A4342F00701816070470000F0B5026A07
:1049800022F001020262036A42688469124E24F036
:1049900073050C682C4323F002058B682B430D4DE7
:1049A000A84201D0B04205D123F00807CB683B43B1
:1049B00023F00403A84201D0B04205D14D6922F48E
:1049C000407215438A692A434260846149684163A1
:1049D0000362F0BD0000014000040140F0B5026A2E
:1049E00022F010020262026A436884690D6824F4AE
:1049F000E64444EA05248D6822F0200242EA0512CA
:104A00000F4D104EA84201D0B04206D1CF6822F01F
:104A1000800242EA071222F04002A84201D0B042CE
:104A200007D14D6923F4406343EA85038D6943EA66
:104A3000850343608461496881630262F0BD0000C0
:104A40000000014000040140F0B5026A22F48072C7
:104A50000262026A4368C46922F4007224F073059A
:104A60000C68124E2C438D6842EA05220E4DA84276
:104A700001D0B04206D1CF6822F4006242EA072298
:104A800022F48062A84201D0B04207D14D6923F4DC
:104A9000405343EA05138D6943EA05134360C4613B
:104AA0004968C1630262F0BD00000140000401409A
:104AB00030B5026A22F480520262046A4268C36915
:104AC0000D6823F4E64343EA05238D6824F400547B
:104AD00044EA0534084DA84202D0084DA84204D14A
:104AE0004D6922F4804242EA85124260C3614968FE
:104AF0000164046230BD0000000001400004014078
:104B000070B5036800249A6822F070054A682A4349
:104B100022F007050A682A439A604A6812F00F0FCC
:104B200031D11211082A2ED2DFE802F02E2E2E2EBD
:104B30000B2127040B69D1E902210068FFF70BFF65
:104B400022E00A68052A10D00268136A156A25F067
:104B50000105156202689569096925F0F00545EAC5
:104B600001119161006803620EE0012070BD0A69C5
:104B70008968006800F00AF806E00A698968006838
:104B800000F015F800E00124204670BD10B5036A5E
:104B9000046A24F001040462846924F0F00444EA05
:104BA000021423F00A020A438461026210BD10B5A8
:104BB000036A23F0100303628369046A23F47043D9
:104BC00043EA023224F0A00343EA01118261016248
:104BD00010BD000070B5044600680169E26821F468
:104BE0004051114301612169A068E269084361698C
:104BF000114308432168CA6849F20C639A4302438F
:104C0000CA6020684169A26921F440711143416181
:104C100031492068884202D03049884202D1FDF7EC
:104C2000BDFD01E0FDF7AAFDE2690023192164251D
:104C30003226B2F5004F626828D0A0FB0101930F25
:104C40009200FBF79DFB0146B0FBF5F06FF01802F8
:104C5000504301EB800006EB0010B0FBF5F000F0D4
:104C6000F002B1FBF5F002EB0012B1FBF5F06FF0D2
:104C70001803584301EB800006EB0010B0FBF5F081
:104C800000F00F0021681044886070BDA0FB010196
:104C900092185B41FBF774FB0146B0FBF5F0020193
:104CA000B1FBF5F06FF01803584301EB800006EB01
:104CB000C000B0FBF5F000F0F80002EB4002B1FBE1
:104CC000F5F0584301EB800006EBC000B0FBF5F0B7
:104CD00000F00700D6E7000000100140001401407A
:104CE00001B50121684600F0D5FF0348006801685E
:104CF000C907FCD108BD0000881A0020264818B456
:104D000000680168890604D501684068009018BCF5
:104D1000704722490968C906F9D501684068204AE8
:104D20000090106801684FF024030C031D490468CB
:104D300024F00104046016D410684468C4F124040B
:104D4000A4B20C8043601068016841F40021016046
:104D50001068016841F001010160122CD7D112499D
:104D600001F1160015E014686068C0F1240080B2FB
:104D7000088063600D498B6A23F400238B621168FD
:104D80000A6842F001020A601228C0D1064901F106
:104D90003A0018BC00F04CBE40190020004800400A
:104DA000C819002028000020301B002000600240AD
:104DB0001F4818B40068C00637D51E4801680A6845
:104DC00049680091816B09680A681B4B12030A68E5
:104DD0004FF4007422F001020A60816B09684A688E
:104DE000C2F5007292B21A804C60816B09680B6840
:104DF0000CD443F400230B60806B0068016841F021
:104E0000010101600D4901F580600BE023F40023EE
:104E10000B60806B0068016841F001010160084986
:104E200001F5007018BC00F07AB818BC704700009B
:104E30000014014084190020A2000020381D002029
:104E4000381F0020FEE703B401984100009850EAA3
:104E5000C12018BF04204A0D18BF40F0010040F2E5
:104E6000FF72B2EB515F08BF40F00200012808BF9B
:104E7000052002B070470907090E002804DB00F185
:104E8000E02080F80014704700F00F0000F1E020EF
:104E900080F8141D704730380A2801D2012070476D
:104EA0000020704700B58BB000200121CDE906013C
:104EB000089100900190029003900590049069463B
:104EC0000548FCF739FD0448FDF75EF80221024869
:104ED000FCF7B2FC0BB000BDA0170020EFF310816F
:104EE00072B6436802699A4201D90268026112F8F7
:104EF000013B02618268521C8260C268521E81F3CB
:104F00001088C260184670478B185B1E0160C0E9AC
:104F100001320022C0E903214161104670472DE9AA
:104F2000F0475FEA01080546EFF3108672B62FD00E
:104F3000AC686CB369686869884201D9286868619F
:104F4000944200DD14460F1A7F1CA74206DB22465E
:104F50004146FBF728FB686920440DE0A4EB0709F4
:104F60003A464146FBF71FFB08EB07014A46286813
:104F7000FBF719FB286848446861A868001BA86013
:104F8000E8682044E860204686F31088BDE8F08792
:104F900086F310884FF0FF30F8E7C06870470000D4
:104FA00010B558B1084C491E0BD310F8013B5340C3
:104FB000DBB234F8133083EA1222F4E74FF6FF70C5
:104FC00010BD104610BD0000C081000810B5054C92
:104FD00004E000BF10F8013B5340E25C491EF9D2E7
:104FE000104610BDC080000870B51A4D00241C2169
:104FF000C5F81640AC76C5F81B40EC772C81AC7236
:105000002C701548FBF746FBC5F80E40C5F812405A
:10501000A5F80B4010486C73AC800F211C30FBF7D7
:1050200039FB0D480E212B30FBF734FB0A481021C9
:105030003930FBF72FFB6C70EC80AC702C620648AB
:10504000AC84EC7040F8494F44608460C5F8264059
:105050006C8570BD75000020E01C0020FDF724FA6F
:10506000FFF7A4FBFEF7E6FCFEF76CFCFEF7E2FEA2
:10507000FEF746FCFEF7A8FDFEF782FEFEF782FD76
:10508000FEF7F8FEFEF7FAFDFEF738FE00F0C8FC6A
:10509000FFF708FF00F064FEFEF79CFF0948FDF7EC
:1050A00091FF084800240168CC62C4600648FDF7FF
:1050B00089FF05480168CC62C460FEF771FC00F00E
:1050C000B6F8FEE768180020B0180020014600205E
:1050D000842900D0C81C704770B51E491E4E1F4C55
:1050E000C87A4FF48075032802D002280AD02CE039
:1050F0001C489FED1B0A002280ED000A1A4880ED33
:10510000000A1EE08A7A012A04D0032A0FD0022A5C
:1051100014D01AE02078642817D100F0FFFC012297
:1051200029463046FDF7ADF9002020700DE00F480C
:1051300000F006FB0E4800F003FB01E000F04CFA23
:10514000012229463046FDF79CF92078401C20704A
:1051500070BD0000301B00200008024074000020D9
:1051600000000000440000204C000020000001402E
:1051700000040140FFF7B0FF022000F051F8F9E70A
:10518000204C214D214E224FB4F902000C2200EE9A
:10519000100A02211920B8EEC00AFFF77FF8B4F90F
:1051A0000C000C2200EE100A10211920B8EEC00AE3
:1051B000FFF774F82878082802D06C2803D008E09C
:1051C0000C2314A201E00C2313A202215A20FFF7A2
:1051D00083F896ED000A0C222421B8EEC00A322092
:1051E000FFF75CF897ED000A32210C22B8EEC00AF6
:1051F0000846FFF753F8FEF7D5FF502000F010F8EF
:10520000C2E70000901B0020FC1C002030000020A2
:105210002C00002072656400626C7565000000005F
:1052200010B500B9012000F095FE002010BD10B5AA
:1052300000F0B6FE002010BD7FB50D460446416962
:10524000B0F9080081B1A16971B1FFF73FFFD4E95E
:1052500005128DE80700D4E900102B46226900F002
:10526000E4FF039004B070BDFFF730FF03A9CDE960
:105270000001208A2B4682B2D4E9001000F0A8FF7A
:10528000012801D00020EDE70398EBE72DE9F0417C
:10529000184C0F460546E6682068001D00F092FD98
:1052A00038B9206890F82C1001208840216981438A
:1052B0002161681C07D137B12168BDE8F0410E4873
:1052C000091D00F0C3BD20683544B5424560216822
:1052D00005D2A06BBDE8F041091D00F09FBD606BD9
:1052E000091D00F09BFDA06A854200D2A562BDE8C1
:1052F000F0810000E0140020382B00202DE9F0415F
:10530000054600F0AFFD2E4CA068401CA060206850
:105310002C4F10B1606940B32DE02560A0680128D2
:1053200029D1002606EB860007EB800000F068FD1F
:10533000761C072EF6D323488C3000F061FD2148FF
:10534000A03000F05DFD1F48B43000F059FD1D484D
:10535000C83000F055FD1B48DC3000F051FD194805
:105360008C3060631430A06305E02068E96AC06A8D
:10537000884200D82560606A401C6062E96A0120AA
:10538000226988401043206101EB810007EB800017
:10539000291D00F05BFD00F085FD606900280CD040
:1053A0002068E96AC06A884207D207494FF08050F6
:1053B0000860BFF34F8FBFF36F8FBDE8F08100002F
:1053C000E01400205C2A002004ED00E010B5044643
:1053D00090F8510058B101280CD002280FD050206D
:1053E00080F31188BFF34F8FBFF36F8FFEE7206B01
:1053F00000F06CFD2046BDE8104000F067BD10BD18
:1054000010484FF47051420706D0C01D0D4920F0DE
:105410000700411AC1F570510B4A00230144C2E94B
:1054200000030839183A21F0070111604B600B6046
:105430000B1AC0E9001393604FF0004053605061B5
:10544000704700004C2B002034150020144E154CE2
:10545000A6F1C8074FF08058DFF84C9012E000BF6B
:1054600000F000FDF068C568281D00F0ABFCA068E6
:10547000401EA0606068401E606000F013FD28467A
:10548000FFF7A4FF60680028EAD138680128F9D93D
:10549000C9F80080BFF34F8FBFF36F8FF2E70000B2
:1054A000242B0020E014002004ED00E02DE9F0475B
:1054B0009A46DDE9098481466FF00303206B03EB14
:1054C00082021044089E20F00707780707D050207A
:1054D00080F31188BFF34F8FBFF36F8FFEE7002576
:1054E00061B1002023180A5C83F834200A5C12B1F1
:1054F000401C1028F6D384F8435001E084F834505F
:10550000072E00D30626E662C4E91165201D00F0CF
:1055100082FC04F1180000F07EFC2461C6F1070053
:105520006462A061E56484F85050524649463846AA
:1055300000F0F0F82060B8F1000F01D0C8F800408A
:10554000BDE8F08730B5114900E011460A68824293
:10555000FBD34B685C18844203D140681844486010
:10556000084643681C18944209D1084C183C24682A
:10557000A24209D052681A4442600A681268026066
:10558000814200D0086030BD0460F9E73415002086
:105590000648416B096829B1416BC968C968496807
:1055A000816270474FF0FF31FAE70000E0140020FD
:1055B00008484068401C4FF0500080F3118804D028
:1055C000BFF34F8FBFF36F8FFEE7BFF34F8FBFF374
:1055D0006F8FFEE73C15002070B5114D114C124E37
:1055E000B5F90200142808DD40213046FCF744FFDD
:1055F000012802D09FED0D0A0FE0B5F9020010F16D
:10560000140F08DA80213046FCF736FF012802D05B
:105610009FED070A01E09FED070A84ED030A70BDC4
:10562000301B0020400000200020024000D08446B3
:1056300000D084C6000000002DE9F0410546002797
:1056400000F0E4FC324E306808B9FFF7D9FE70690B
:1056500005424ED1C5B3083568070ED005F00700E6
:10566000C0F108000544680707D0502080F3118876
:10567000BFF34F8FBFF36F8FFEE72DB37068854286
:1056800037D82348183001460C6801E020460C4604
:105690006168A94202D221680029F7D131688C42A1
:1056A00027D007682168016060680837411B10290E
:1056B0000FD96019420708D0502080F31188BFF33A
:1056C0004F8FBFF36F8FFEE713E041606560FFF718
:1056D00039FF61687068401A7060B268904200D209
:1056E000B060706901430020C4E90001F068401C0B
:1056F000F06000F02BFE780707D0502080F311886F
:10570000BFF34F8FBFF36F8FFEE73846BDE8F081E0
:105710001C15002010B5031F4FF080741C601B1F68
:1057200021F001011960191F044B0B6014390A6044
:10573000091F6FF0020244380A6010BDB15500081D
:1057400010B5124C124B13496FF01D02A04212D13A
:10575000B1F90400611415E0012202E0904214DC6A
:1057600000221846FCF78DFE20463222BDE810408C
:105770001146FEF7DBBE084CA04206D1B1F902008B
:105780004FF480411E28E9DBE6E710BD0000014030
:1057900000100240301B00200004014018B400211A
:1057A000ADF800104849026840F20224C1F8162002
:1057B00002798A76B0F80520ADF8002092B2A2F204
:1057C0000223A2425DD01FDCB2F5817F49D00FDCFD
:1057D000012A38D0022A3CD0032A3DD0A2F580729B
:1057E000013A03D1D0F80700C1F80E0018BC704789
:1057F000A2F58072033A39D0012A3ED0FE2AF5D1B3
:10580000C11D0F22314845E0052B4DD00ADC012B8C
:105810003CD0022B41D0032B42D0042BE6D1C079DF
:105820008870E3E7062B45D0082B46D0FF2BDDD14F
:10583000264950F8072F1C3941F8492F42684A6021
:1058400080688860D2E7B0F807200A81407A8872C1
:10585000CCE7C0790870C9E7C11D1C481C221C3860
:1058600018E0D0F80700C1F81200BFE7B0F8072031
:10587000A1F80B20407A4873B8E7B0F80700888099
:10588000B4E7C11D11480E220F3003E0C11D0F48BF
:1058900010221D3018BCFAF786BEC0794870A5E703
:1058A000B0F80700C880A1E750F8072F0A62808887
:1058B00088849BE7C079C87098E750F8072FC1F833
:1058C00026208088488591E775000020FC1C002078
:1058D000044CE07A012801D1FBF7BEFE2320FFF73C
:1058E0009FFCF6E7301B002070B5A5263D4C002537
:1058F00071E03D48FFF7F2FA94F8861006294BD282
:10590000DFE801F003131D2D384DB0420AD101210B
:1059100084F88610B4F88710A31D4A1CA4F88720C9
:10592000C85458E0A4F8875055E0A080B4F8871018
:10593000A31D4A1CA4F88720C854022017E0A188A0
:10594000A31D41EA0021A180B4F887104A1CA4F8E5
:105950008720C854A08877281ED2032007E0B4F817
:105960008710A31D4A1CA4F88720C854042084F87B
:10597000860030E0B4F88710A31D4A1CA4F88720E5
:10598000C854B4F88700052825D10521A01D00F0D2
:1059900091FB08B10520EAE784F88650C2E7A288A7
:1059A000B4F887100932914204D2A31D4A1CA4F80E
:1059B0008720C854A188B4F88700093188420AD3E7
:1059C00084F88650A4F88750A01D00F055FB10B154
:1059D000A01DFFF7E3FE0448FFF7DFFA002888D197
:1059E00070BD00005025002038210020FFF7FCFA90
:1059F00009494FF48062A1F11800FFF785FA0749C1
:105A00004FF40072A1F5007000F0E8F8FFF76CFFAA
:105A10000A20FFF705FCF9E750210020381F00207D
:105A200002492422A1F12400FEF7EEBD6A1B0020EA
:105A3000F0B5002855D0002953D00278437842EAC7
:105A40000322C2F30A020A8043788478DB0843EA1F
:105A50004413C3F30A034B808478C578A40944EA4D
:105A60008504057944EA8524C4F30A048C80057909
:105A700046796D0845EAC615C5F30A05CD80467915
:105A8000C6F301168E724679B609CE728679C77949
:105A900046EA07268E81067A477A46EA0726CE81AD
:105AA000867AC77A46EA07260E82067B8E74467B84
:105AB000CE74867BC77B46EA07268E82067C407CB6
:105AC000A2F580620A80A3F580634B80A4F5806410
:105AD00046EA00208C80A5F58065CD80A0F5806029
