:020000040800F2
:10000000600A0020290200085B2600087922000807
:10001000592600081F040008CD2D0008000000002C
:100020000000000000000000000000007928000827
:10003000F904000800000000152800087B280008CB
:10004000430200084302000843020008430200087C
:10005000430200084302000843020008430200086C
:10006000430200084302000843020008430200085C
:10007000710400084302000843020008430200081C
:10008000430200084302000843020008430200083C
:10009000210400084302000843020008430200084C
:1000A000430200084302000843020008430200081C
:1000B0002529000843020008430200084302000803
:1000C00043020008430200084302000843020008FC
:1000D000430200084302000843020008192D0008EB
:1000E00043020008430200084302000843020008DC
:1000F00043020008430200084302000843020008CC
:1001000043020008430200084302000843020008BB
:1001100043020008430200084302000843020008AB
:10012000430200084302000843020008430200089B
:10013000430200084302000843020008430200088B
:10014000430200084302000843020008430200087B
:10015000430200084302000843020008430200086B
:10016000430200084302000843020008430200085B
:100170004302000843020008430200080000000098
:10018000430200084302000800F002F800F03CF8C7
:100190000AA090E8000C82448344AAF10107DA45E2
:1001A00001D100F031F8AFF2090EBAE80F0013F0F8
:1001B000010F18BFFB1A43F0010318477830000005
:1001C00098300000103A24BF78C878C1FAD8520796
:1001D00024BF30C830C144BF04680C6070470000C1
:1001E0000023002400250026103A28BF78C1FBD840
:1001F000520728BF30C148BF0B6070471FB503F0DE
:1002000003F81FBD10B510BD00F0D4F81146FFF77C
:10021000F5FF02F009FE00F0F2F803B4FFF7F2FF79
:1002200003BC00F0F5F80000094880470948004782
:10023000FEE7FEE7FEE7FEE7FEE7FEE7FEE7FEE796
:10024000FEE7FEE704480549054A064B70470000F3
:10025000152900088901000860040020600A0020B8
:10026000600600206006002053EA020C00F069805E
:100270002DE9F04B4FF00006002B1FBFB3FA83F5BA
:1002800003FA05F424FA05F65E4012BF1643B2FAEB
:1002900082F502FA05F4C5F120051EBF22FA05FC1D
:1002A00044EA0C04203556EA044C4FEA144418BFC3
:1002B000641C4FF000084FF00009904271EB030CF2
:1002C00039D3002919BFB1FA81F701FA07F6B0FA5C
:1002D00080F700FA07F6C7F120071EBF20FA07FCD7
:1002E00046EA0C062037B6FBF4FCA7EB0507103FE7
:1002F00007F01F0BCBF120060CFA0BFB2CFA06F6CD
:1003000044BFB3460026202FA4BF5E464FF0000B2B
:100310005BEA060C08BF4FF0010B19EB0B09ABFBB6
:10032000027C48EB0608C01B06FB02CC0BFB03CC8F
:1003300071EB0C01C1E70B46024641464846BDE859
:10034000F08B13B54FF000004FF00001AFF30080C9
:10035000BDE81C4070474FF0000200B513469446BC
:100360009646203922BFA0E80C50A0E80C50B1F10D
:100370002001BFF4F7AF090728BFA0E80C5048BF21
:100380000CC05DF804EB890028BF40F8042B08BFBF
:10039000704748BF20F8022B11F0804F18BF00F8BB
:1003A000012B704770477047704700000048704746
:1003B000000400207546FFF7F9FFAE4605006946C8
:1003C000534620F00700854618B020B5FFF73AFFE6
:1003D000BDE820404FF000064FF000074FF0000846
:1003E0004FF0000B21F00701AC46ACE8C009ACE8C7
:1003F000C009ACE8C009ACE8C0098D46704710B52B
:100400000446AFF300802046BDE81040FFF705BF6B
:1004100001491820ABBEFEE7260002007047FEE748
:10042000014800F0E8B900005800002038B50D4B35
:100430004FF400741C6000249C60DC6008241C6184
:10044000094B040A1C705870080A9870D970100A79
:1004500018715A716B46044A0249044800F061F869
:1004600038BD0000F80200201600002058000020CF
:10047000014800F021BC0000F001002001681823B1
:10048000CAB2103AB2FBF3F2054B6FF30901032A2B
:100490009B5CC36500D9091D816508467047000053
:1004A0001232000810B5014600208B698A6A4FF0AD
:1004B000C07453B1B3F5005F15D072B1012A0CD0EE
:1004C000022A0AD0032A09D104E01AB1012A06D06F
:1004D000022A03D1C96AC90100D5012010BDC96A29
:1004E000A142FAD010BD002AF7D0012AF2D0022A88
:1004F000F3D0032AF3D010BD704772B6FEE790F830
:100500002020012A07D0022A05D0416A41F4802127
:10051000416201207047006842690A43426100203D
:100520007047F0B590F820500468A468012D05D0FC
:10053000022D03D0416A41F480215DE014F0406F48
:1005400001D1E50055D5C4F30164022C03D9416AF9
:1005500041F4000150E00125A5401D608D684FF475
:10056000C0739DB1CE6835434E6845EAC60506683E
:1005700003EB0417F5514FF4C275076805EB04153A
:100580000E697E51097D012905D009E00E88CD68EC
:1005900045EA4655EBE701684E5946F480764E51E0
:1005A0001179D579567941EA056195792D0445EAA5
:1005B000062529434FF4C676056806EB0416A951B3
:1005C0001178D57841EA0561957852782D0445EA8D
:1005D000022211434FF4C475026805EB0415515112
:1005E000006803EB0411425842F00102425000201F
:1005F000F0BD416A41F4001141620120F0BD0000EC
:1006000010B590F82020012A07D0022A05D0416AAF
:1006100041F480214162012010BD3B48D0F8002206
:1006200042F00102C0F80022D0F8002222F47C52ED
:10063000C0F80022D0F800224B6A42EA0322C0F838
:1006400000220A7D02F01F0301229A40D0F81C32DA
:100650009343C0F81C32CB69B3B9D0F80C32934342
:10066000C0F80C328C894B6864F31F434C6900EB73
:10067000C404C4F840320C890B6864F31F434C690E
:1006800000EBC404C4F84432CB69012B16D1D0F876
:100690000C321343C0F80C320C884B6864F31F43D0
:1006A0004C6900EBC404C4F840320C89CB6864F395
:1006B0001F434C6900EBC404C4F844328B69002B1F
:1006C000D0F804320ED01343C0F804320B69002B6B
:1006D000D0F8143208D01343C0F81432096A012943
:1006E00004D008E09343EFE79343F5E7D0F81C12FA
:1006F0001143C0F81C12D0F8001221F00101C0F81B
:100700000012002010BD000000640040704730B5AA
:1007100090F82040012C05D0022C03D0416A41F40E
:1007200080215DE00468002955D02469A40754D0D5
:100730004FF4D874056804EB01142D5915F0040525
:10074000956005682D594ED0ED08556005682C5907
:1007500004F00204D4604FF4DA74056804EB011469
:100760002D5905F00F05156105682D59C5F30725AD
:10077000956105682C59240C54614FF4DC720468AF
:1007800002EB0112A4581C700468A458240A5C707F
:100790000468A458240C9C700468A258120EDA70E5
:1007A0004FF4DE72046802EB0112A4581C71046855
:1007B000A458240A5C710468A458240C9C71046831
:1007C000A258120EDA71006881B1016941F020016E
:1007D0000161002030BDE468A8E7416A41F40011DE
:1007E0004162012030BD6D0D1560AFE7C16841F079
:1007F0002001C160EDE72DE9F05F054600680024A7
:100800004669D0F804908768D0F80CB0D0F810A0F2
:10081000D0F81880F10748D0F90714D00121816081
:10082000B80703D5284600F040FA0CE0780702D557
:100830004FF4006407E0380702D54FF4805402E01B
:10084000284600F031FAF80516D529684FF4807073
:100850008860B80503D5284600F029FA0CE0780531
:1008600002D544F4005407E0380502D544F480442E
:1008700002E0284600F01AFAF80316D529684FF46A
:1008800080308860B80303D5284600F012FA0CE0E7
:10089000780302D544F4004407E0380302D544F459
:1008A000803402E0284600F003FA300707D55FEAFB
:1008B000CB6004D52968102044F40074C860700728
:1008C0004FF0080707D55FEA0B7004D52868C760AA
:1008D000284600F057F9B00706D52868C068800799
:1008E00002D0284600F050F9700607D55FEACA60CA
:1008F00004D52968102044F480640861B00607D547
:100900005FEA0A7004D528680761284600F09CF960
:10091000F00606D528680069800702D0284600F056
:1009200094F9B00308D55FEAC96005D5296810209D
:100930004860284600F08AF9F00307D55FEA09709D
:1009400004D528684760284600F0B4F9300446D53D
:100950005FEA497040D5F00504D55FEAC87001D060
:1009600044F00104B00504D55FEA887001D544F075
:100970000204700504D55FEA487001D544F0040410
:10098000300529D518F0700F26D008F070004028E7
:1009900015D006DC102809D020280AD0302816D11E
:1009A0000AE050280ED0602811D10EE044F008046F
:1009B0000DE044F010040AE044F0200407E044F0A5
:1009C000400404E044F0800401E044F480742868AA
:1009D000816921F070018161296804204860002C40
:1009E00005D0686A204368622846FFF78FFEBDE89D
:1009F000F09F70B5040003D094F8200010B104E01B
:100A0000012070BD204600F081F82068016841F0A7
:100A10000101016000F09EFB0546052604E000F0A0
:100A200099FB401B0A2811D820684068C007F6D0FF
:100A30002068016821F00201016000F08BFB05468F
:100A40000BE000F087FB401B0A2806D9606A40F4DF
:100A50000030606284F82060D2E720684068800738
:100A6000EFD4207E0128206801683DD021F080016C
:100A70000160607E01282068016838D021F04001C3
:100A80000160A07E01282068016833D021F0200198
:100A90000160E07E0128206801682ED041F010013D
:100AA0000160207F01282068016829D021F0080119
:100AB0000160607F01282068016824D021F00401D2
:100AC0000160D4E902010843D4E904121143084348
:100AD0006168491E08432168C861002060620120E6
:100AE00084F82000002070BD41F08001C0E741F093
:100AF0004001C5E741F02001CAE721F01001CFE72E
:100B000041F00801D4E741F00401D9E710B586B0FF
:100B1000044614216846FFF71EFC174920688842E6
:100B200027D116480021026842F000720260006876
:100B300000F00070059011481038026842F0080279
:100B400002600068022200F0080005900320CDE951
:100B50000210CDE90002092004906946084800F01F
:100B6000F7F900221146142000F05AFC142000F07E
:100B700049FC06B010BD000000640040403802404F
:100B8000000C02407047000000B58FB006AB08AA09
:100B90000021FFF7BCFD089A29492A48A2F2012248
:100BA000072A18D2DFE802F004192531313131006B
:100BB00000220A7001880181BDF8181049BA01802D
:100BC000BDF81A1049BA4180BDF81C1049BA81809D
:100BD0009DF81E1081710FB000BD01224A70194AA4
:100BE000438902F10A015382BDF8182052BA4281AA
:100BF00019E002228A70134A838A02F11401938356
:100C0000BDF8182052BA82820DE0D2B2CA7002EB4F
:100C1000820200EB420130F812300B81BDF818302F
:100C20005BBA20F81230BDF81A0040BA4880BDF80F
:100C30001C0040BA88809DF81E008871CBE7000038
:100C400012000020B002002070477047704700007B
:100C500070B5044690F82000012804D0606A40F482
:100C60000020606218E0022084F8200020680168FB
:100C700021F00101016000F06DFA05460EE000BFB1
:100C800000F068FA401B0A2808D9606A40F4003076
:100C90006062052084F82000012070BD2068406853
:100CA000C007EDD1606270BD7047704770477047F4
:100CB00070477047704700002DE9F84304464FF035
:100CC0000009CDF8009063484FF41651A56D0068F7
:100CD000B0FBF1F72E6894F85C10082000FA01F1DF
:100CE00031420FD021680A6852070BD50A6822F0FA
:100CF00004020A6094F85C108840A860606D40F0BF
:100D00000100606594F85C104FF0010808FA01F0EA
:100D1000304208D021684969090604D5A860606D91
:100D200040F00200606594F85C1004208840304276
:100D300008D021680968890704D5A860606D40F073
:100D40000400606594F85C1010208840304218D090
:100D500021680968090714D5A8602068016849035B
:100D600004D50068000308D5A16C07E00168C90537
:100D700003D4016821F008010160216C09B120460B
:100D8000884794F85C1020208840304231D0216898
:100D90000968C9062DD5A86094F835000528206893
:100DA000016806D0490347D5006800031DD4616C73
:100DB0001CE021F0160101602068416921F08001EA
:100DC0004161206C08B9A06C20B12068016821F055
:100DD0000801016094F85C103F208840A86084F806
:100DE000358084F83490216D1FE0E16B09B1204615
:100DF0008847606D00282BD0606DC00714D0052097
:100E000084F835002068016821F001010160009834
:100E1000401C0090B84203D820680068C007F6D193
:100E200084F8358084F83490E16C002910D001B04A
:100E30002046BDE8F04308470168C905D5D40168DC
:100E400021F01001016084F8358084F83490CCE7FB
:100E5000BDE8F8830C0000202DE9F041044600F0C5
:100E600079F906465CB1022084F83500002584F843
:100E700034502068016821F0010101600DE001207B
:100E8000BDE8F08100F066F9801B052805D9202017
:100E90006065032084F83500F2E720680068C00729
:100EA000F0D12268116820480140D4E901031843B9
:100EB000D4E903363343184363691843A3691843DD
:100EC000E3691843236A18430843616A042903D17C
:100ED000D4E90B1319430843106020684069666A1F
:100EE00020F0070130460E43012704280CD1A06AE8
:100EF0000643E06A40B12046FFF7D4FA20B1402013
:100F0000606584F83570BAE7206846612046FFF7CF
:100F1000B5FA94F85C203F2191408160656584F8C2
:100F200035700020ACE700003F8010F070B504463B
:100F300000F010F90546601C02D004480078044413
:100F400000F008F9401BA042FAD370BD0000002059
:100F50002DE9F84FDFF8BCA1002201250AF1040BAE
:100F600003264FF00F090BF1040E00BF0B6805FAC2
:100F700002F42340A34270D10F7907F00307012F39
:100F800001D0022F16D187684FEA420806FA08FC02
:100F900027EA0C07D1F80CC00CFA08FC4CEA070C45
:100FA000C0F808C04768A7430C79C4F30014944004
:100FB0003C4344600C79E443A4070AD0C4684FEA78
:100FC000420C06FA0CF7BC438F6807FA0CF727436C
:100FD000C7600C7904F00304022C12D1D40800EB92
:100FE000840CDCF820405707FF0E09FA07F824EAC2
:100FF0000804D1F8108008FA07F848EA0408CCF889
:10100000208004684FEA420C06FA0CF7BC430F79C3
:1010100007F0030707FA0CF7274307604C6814F43E
:10102000403F70D03C4C276847F4804727602468D5
:1010300022F0030704F480440094384C07EB040CBE
:10104000DCF8084897074FEA177809FA08F7BC4315
:10105000334FB84202D1002724E054E0314FB84268
:1010600001D101271EE0304FB84201D1022719E01B
:101070002E4FB84201D1032714E02D4FB84201D1C1
:1010800004270FE02B4FB84201D105270AE02A4F71
:10109000B84201D1062705E0284FB84201D1072701
:1010A00000E0082707FA08F72743CCF80878DAF8B1
:1010B00000405746D1F804C09C435FEACC3C00D5C1
:1010C0001C433C60DBF800405F46D1F804C09C4301
:1010D0005FEA8C3C00D51C433C60DEF8004077465C
:1010E000D1F804C09C435FEACC2C00D51C433C6083
:1010F000084F0C373C68D1F804C09C435FEA8C2C45
:1011000000D51C433C60521C102AFFF42FAFBDE8F1
:10111000F88F0000003C014044380240003001409C
:10112000000002400004024000080240000C02409F
:10113000001002400014024000180240001C02404F
:101140000069084000D0012070470AB181617047F2
:101150000904FBE701488068704700000000002098
:1011600070B5040025D094F83D00002520B984F81E
:101170003C50204600F0B8F8242084F83D00206858
:10118000016821F0010101602068016841F400411B
:1011900001602068016821F40041016000F00CFA50
:1011A0004D4A6168914201D84C4900E04C4988425F
:1011B00001D2012070BD4B492368B0FBF1F15E689C
:1011C00026F03F060E435E606368934206D94FF4F3
:1011D000967359434FF47A73B1FBF3F12368491CBA
:1011E0001E6A26F03F06314319626168914210D8A9
:1011F0004900401EB0FBF1F2521CC2F30B02042A5C
:1012000001D2042022E0B0FBF1F0401CC0F30B003F
:101210001CE0A268F2B301EBC10303EB0116431E0D
:10122000B3FBF6F35B1C43F480431B0549D092B338
:1012300001EBC10202EB0111401EB0FBF1F0401CBA
:10124000C0F30B0040F4804040F400402168CA69BC
:101250004CF6FF739A431043C861D4E90710014369
:101260002068026822F0C00211430160D4E9030142
:1012700001432068826848F2FF339A43114381603A
:10128000D4E9050108432168CA6822F0FF0210432F
:10129000C86001E00EE016E02068016841F001013D
:1012A00001602564202084F83D00256384F83E50C9
:1012B000002070BD01EB4106431EB3FBF6F35B1C3F
:1012C000B3E70120C2E701EB4101401EB0FBF1F0A2
:1012D000401CC0F30B00B7E7A086010080841E000D
:1012E00000093D0040420F0010B586B004461421AD
:1012F0006846FFF730F81349206888421FD112482A
:101300000021026842F0200202600068122200F010
:10131000200005900320CDE90210CDE90002042051
:10132000049069460948FFF713FE0748103001682A
:1013300041F480010160006800F48000059006B06F
:1013400010BD000000580040303802400014024038
:1013500002488168027811448160704700000020D3
:101360000B4810B5016841F400710160016841F457
:1013700080610160016841F480710160032000F028
:101380006FF80F2000F006F800F024F8002010BDE0
:10139000003C024070B50D4D04464FF47A71287838
:1013A000B1FBF0F00A490968B1FBF0F000F00CFB6A
:1013B00048B9102C07D200222146501E00F030F808
:1013C00000206C6070BD012070BD00000000002096
:1013D0000C0000200A4808B5016841F48041016012
:1013E000006800F4804000900548001F016841F04B
:1013F00080510160006800F08050009008BD00003E
:1014000044380240002809DB00F01F02012191400E
:101410004009800000F1E020C0F800117047000092
:10142000F0B40E4B1B680C46C3F30223C3F107054F
:10143000042D00D90425191D072901D2002300E03D
:10144000DB1E012606FA05F1491E214099409E4007
:10145000761E16403143F0BC01F0B9BC0CED00E043
:10146000064900F0070208684FF6FF03184040EAFB
:101470000220034A10430860704700000CED00E0B2
:101480000000FA052DE9F0470E46050065D0DFF8AB
:101490001481D8F80000F7B200F00700B04207D27C
:1014A00088F80070D8F8000000F00700B04254D16E
:1014B00028683D4C810712D5400703D5206840F4C9
:1014C000E05020602878000703D5206840F4604091
:1014D00020602068A96820F0F00008432060287888
:1014E000C0072DD0304968680839012812D0022879
:1014F00013D0032811D00968890700292DDA216843
:1015000021F0030101432160FFF724FE814641F2EF
:10151000883A0EE009688903EFE709688901ECE77A
:10152000FFF718FEA0EB0901514502D90320BDE8E1
:10153000F0872068696800F00C00B0EB810FEFD1F4
:10154000D8F80010404601F00701B14207D90770F2
:10155000006800F00700B04201D00120E7E72878DA
:10156000400705D52068E96820F4E0500843206072
:101570002878000706D52068296920F4604040EAF1
:10158000C100206000F038F82168084AC1F3031157
:10159000515CC8400649086006480068FFF7FAFE3B
:1015A0000020C4E7003C0240083802401A3200081C
:1015B0000C00002004000020044805490068096868
:1015C000044AC1F38221515CC84070470C000020DE
:1015D000083802402A3200080448054900680968B2
:1015E000044AC1F34231515CC84070470C000020EE
:1015F000083802402A320008154810B5006810F07B
:101600000C02144813D01449042A0FD0082A0ED112
:101610000F4C241F2268236802F03F025B0207D5AB
:101620002068C0F38810A0FB010106E0084610BD49
:101630002168C1F38811A1FB00010023FEF714FE0D
:101640002168C1F30141491C4900B0FBF1F010BD14
:10165000083802400024F400001BB7002DE9F84FC1
:1016600004006ED02078DFF84C93C007A9F1040580
:101670004AD009F104000168C1F38101012908D0B1
:101680000068C0F3810002280AD1D9F800004002A6
:1016900006D52868800337D560680028E1D033E09C
:1016A0006068B0F5803F10D0B0F5A02F286810D04A
:1016B00020F480302860286820F48020286060684A
:1016C000A8B1FFF747FD06460DE0286840F48030DA
:1016D000F4E740F480202860F7E700BFFFF73AFD09
:1016E000801B642873D828688003F7D50CE0FFF7C7
:1016F00031FD064605E000BFFFF72CFD801B642886
:10170000F0D828688003F7D42078DFF8AC8280070F
:101710004FF0000A3ED5A748001D016811F00C0FDC
:1017200008D00068C0F3810002280BD1D9F800006E
:10173000400207D42868800716D5E068012800D148
:1017400012E033E1E068B8B10120C8F80000FFF70B
:1017500001FD064605E000BFFFF7FCFC801B0228E8
:10176000C0D828688007F7D52868216920F0F800DC
:1017700040EAC10028600DE0C8F800A0FFF7EAFCCD
:10178000064604E0FFF7E6FC801B02281FD8286805
:101790008007F7D42078000722D5864F87486169F3
:1017A000703771B101210160FFF7D4FC064604E0F7
:1017B000FFF7D0FC801B022809D838688007F7D5CE
:1017C0000EE0C0F800A0FFF7C5FC064605E082E089
:1017D000FFF7C0FC801B02287DD838688007F7D44B
:1017E0002078400768D5DFF8CCB100270BF13C0B1F
:1017F000DBF80000C0000BD4DBF8001041F0805192
:10180000CBF80010DBF80000012700F080500090BA
:101810006B4E3068C00510D4306840F48070306082
:10182000FFF798FC009005E0FFF794FC0099401A40
:10183000022850D83068C005F6D55E4EA0686C36D8
:1018400001280FD00528306810D020F0010030604A
:10185000306820F004003060A068B8B1FFF77AFC6F
:1018600000900FE0306840F00100F4E740F0040021
:101870003060F7E7FFF76EFC0099411A41F28830BB
:10188000814266D830688007F4D50EE0FFF762FC2D
:10189000009007E0FFF75EFC0099411A41F28830A2
:1018A000814256D830688007F4D42FB1DBF800109D
:1018B00021F08051CBF80010A069C8B33D49091D43
:1018C0000968C1F3810102294AD00228504607D095
:1018D000C8F8600000E03CE0FFF73CFC04463BE059
:1018E0004746C8F86000FFF735FC064605E000BF34
:1018F000FFF730FC801B02282BD828688001F7D422
:10190000D4E907010843A16A2E4A490802EB0141C4
:10191000626A41EA8211084394F82C1040EA01619E
:10192000C9F8001001203866FFF714FC044606E0F1
:101930003EE000BFFFF70EFC001B022809D8286814
:101940008001F7D534E000BFFFF704FC001B02283C
:1019500002D90320BDE8F88F28688001F4D427E07D
:101960000128F7D0D9F80000E26900F48001914223
:101970001CD1226A00F03F01914217D147F6C07195
:10198000626A0140B1EB821F10D1A26A4FF0FF33AF
:1019900000F4403103EB5202B1EB024F06D194F850
:1019A0002C1000F07060B0EB016F01D00120D1E786
:1019B0000020CFE70438024000004742800E474233
:1019C000007000400000FFFF10B5401EB0F1807FA6
:1019D00001D3012010BD4FF0E02460610F2160179A
:1019E00001F0F5F90020A06107202061002010BD62
:1019F0007047704710B590F83C20012A22D0012290
:101A000080F83C20CA688C6822F4407222434C68FB
:101A100022F4806222430C6822F4006222430C69A3
:101A200022F4805222434C6922F400522243C969B5
:101A3000002322F480420A4301684A6480F83C3063
:101A4000002010BD022010BD70B590F83C20012A86
:101A500032D0012480F83C40022280F83D20036807
:101A60005A689D6822F070060A6832435A60134B28
:101A700002689A4214D0B2F1804F11D0104B9A42B2
:101A80000ED0104B9A420BD00F4B9A4208D00F4BFE
:101A90009A4205D00E4B9A4202D00E4B9A4204D184
:101AA000496825F080031943916080F83D4000218A
:101AB00080F83C10084670BD022070BD0000014057
:101AC0000004004000080040000C004000040140F9
:101AD000004001400018004010B5040003D094F805
:101AE0003D0010B107E0012010BD002084F83C004B
:101AF000204600F01FF8022084F83D00211D2068D8
:101B000000F016FF012084F8460084F83E0084F8B7
:101B10003F0084F8400084F8410084F8420084F8D3
:101B2000430084F8440084F8450084F83D00002018
:101B300010BD000008B5184A01681848914207D145
:101B4000016841F001010160006800F001000CE053
:101B5000B1F1804F0BD0124A914207D1016841F098
:101B600002010160006800F00200009008BD0B480F
:101B7000001F016841F0010101600068002200F0CF
:101B80000100009011461C20FFF74AFCBDE8084008
:101B90001C20FFF737BC0000000001404438024021
:101BA0000004014090F83D10012901D00120704748
:101BB000022180F83D100168CA6842F00102CA6043
:101BC00000681149884214D0B0F1804F11D00F49FC
:101BD00088420ED00E4988420BD00E49884208D068
:101BE0000D49884205D00D49884202D00C498842EF
:101BF00004D1816801F00701062903D0016841F092
:101C00000101016000207047000001400004004015
:101C100000080040000C004000040140004001406A
:101C20000018004070B5044690F83C0000250128DB
:101C300017D0012684F83C60022084F83D0020681B
:101C4000826822F0770222F47F428260086850287E
:101C500038D00DDC20284FD005DC90B3102811D1EE
:101C60004AE0022070BD302846D040280AD13BE02F
:101C700060282FD070280DD0B0F5805F03D0B0F56C
:101C8000005F12D0012584F83D60002084F83C00FC
:101C9000284670BDCB68D1E90121206800F0B9FE6B
:101CA0002068816841F0770109E0CB68D1E9012122
:101CB000206800F0AEFE2068816841F480418160B8
:101CC000E1E719E0CA684968206800F07BFF50210D
:101CD000206806E0CA684968206800F084FF602137
:101CE000206800F0A4FECEE7CA684968206800F0CA
:101CF00069FF40212068F4E7226801461046F0E7BA
:101D0000704770B50446006801694FF00005C9438B
:101D1000890715D4C168C943890711D4E91E016137
:101D200001202077206880698007204602D0FFF7D5
:101D3000E7FF04E000F0DAF8204600F06CF92577C0
:101D400020680169C943490717D4C168C9434907D5
:101D500013D46FF0040101610220207720688069AC
:101D600010F4407F204602D0FFF7CAFF04E000F0E5
:101D7000BDF8204600F04FF9257720680169C94376
:101D8000090716D4C168C943090712D46FF00801C6
:101D90000161042020772068C0698007204602D0B6
:101DA000FFF7AEFF04E000F0A1F8204600F033F9A1
:101DB000257720680169C943C90617D4C168C9439A
:101DC000C90613D46FF01001016108202077206844
:101DD000C06910F4407F204602D0FFF791FF04E075
:101DE00000F084F8204600F016F925772068016994
:101DF000C943C90708D1C168C943C90704D1891EAD
:101E00000161204600F0AAF920680169C94309066A
:101E100009D4C168C943090605D46FF08001016186
:101E20002046FFF7E5FD20680169C943490609D44A
:101E3000C168C943490605D46FF0400101612046DD
:101E400000F08EF920680169C94389060BD4C16886
:101E5000C943890607D46FF0200101612046BDE81F
:101E60007040FFF7C6BD70BD30B587B00446142181
:101E70006846FEF770FA2468174D002117480223C0
:101E80000322AC4211D1046844F0100404600068DD
:101E9000CDE9021200F0100005909802CDE9000390
:101EA0000120049069460E4812E00E4DAC4211D15B
:101EB000046844F0040404600068CDE9021200F0F4
:101EC000040005904020CDE90003694604920648CD
:101ED000FFF73EF807B030BD000001403038024047
:101EE000001002400004014000080240704770B535
:101EF000044690F83C0000260D4601280FD0012032
:101F000084F83C006AB1042A1DD0082A2FD00C2A7C
:101F10003FD00126002084F83C00304670BD0220EE
:101F200070BD206800F08CFD2068816941F00801D7
:101F300081612068816921F00401816120688169E3
:101F40002A69114311E0206800F0AAFD2068816928
:101F500041F4006181612068816921F480618161BF
:101F6000206881692A6941EA02218161D2E72068FB
:101F700000F0CCFD2068C16941F00801C161206812
:101F8000C16921F00401C1612068C1692A69114356
:101F900011E0206800F0EEFD2068C16941F40061A5
:101FA000C1612068C16921F48061C1612068C16993
:101FB0002A6941EA0221C161ACE710B5040003D0EF
:101FC00094F83D0010B107E0012010BD002084F816
:101FD0003C00204600F01EF8022084F83D00211D40
:101FE000206800F0A5FC012084F8460084F83E003B
:101FF00084F83F0084F8400084F8410084F84200EF
:1020000084F8430084F8440084F8450084F83D00D7
:10201000002010BD7047704710B50446022249B138
:1020200004290ED0082913D094F84100012816D0B5
:10203000012010BD94F83E000128F9D184F83E201B
:102040000FE094F83F000128F2D184F83F2008E027
:1020500094F840000128EBD184F8402001E084F896
:1020600041200122206800F0C7FC16492068164A6A
:10207000884201D0904203D1436C43F4004343644F
:102080002068884213D0B0F1804F10D00F498842A9
:102090000DD00F4988420AD00E49884207D090429D
:1020A00005D00D49884202D00C49884204D181688C
:1020B00001F00701062903D0016841F00101016028
:1020C000002010BD00000140000401400004004059
:1020D00000080040000C0040004001400018004093
:1020E00030B504460D460068002200F085FC194B0F
:1020F00041F2111120688A10984202D0164B984282
:1021000009D1036A0B4206D1036A134203D1436C1F
:1021100023F4004343642068036A0B4206D1016A3A
:10212000114203D1016821F00101016001203DB19C
:10213000042D08D0082D09D084F84100002030BDBE
:1021400084F83E00FAE784F83F00F7E784F840009F
:10215000F4E70000000001400004014000F0A2BECE
:10216000704770B5040004D094F83D00002510B10C
:1021700006E0012070BD84F83C50204600F022F8B3
:10218000242084F83D002068C16821F40051C1601A
:10219000204600F03BFD2068016921F49041016177
:1021A0002068416921F02A0141612068C16841F439
:1021B0000051C1602564202084F83D0084F83E0071
:1021C000002070BD70B586B0064614216846FEF743
:1021D000C2F824493068884242D12348002501686A
:1021E00041F480210160006800F4802005901E48C1
:1021F0001038016841F0040101600068694600F090
:10220000040005904FF4406000900220CDE90105E4
:1022100003200390072004901448FEF799FE154C04
:10222000134820604FF00060C4E901054014C4E980
:10223000035065614FF44030A561C4E90750204662
:102240006562FEF709FE08B1FEF757F9B463002294
:1022500011462720A663FFF7E3F82720FFF7D2F8FF
:1022600006B070BD004800404038024000080240FF
:1022700028600240F0010020FEE700000F4810B582
:102280000D4901600321416000214FF4102281605B
:10229000C0E903124FF40012426101764176817663
:1022A000C17601774177FEF7A4FB002803D0BDE893
:1022B0001040FEF722B910BD006400405800002015
:1022C000094808B5016841F4001101600068002266
:1022D00000F40010009011460C20FFF7A1F8BDE8B3
:1022E00008400C20FFF78EB830380240F0B587B0B8
:1022F00014216846FEF72FF832480024016841F0A7
:1023000001010160016801F001010591016841F0DE
:1023100008010160016801F008010591016841F0C0
:1023200004010160016801F004010591016841F4B4
:1023300080710160016801F480710591016841F0CC
:1023400020010160016801F020010591016841F060
:1023500080010160016801F080010591016841F090
:1023600010010160016801F010010591016841F060
:10237000020101600068144F00F002004FF4C046F3
:102380000590002231463846FEF7DFFEC0200225C8
:102390008DE8310069460D48FEF7DAFD01AA0120FB
:1023A000009682E8310069463846FEF7D1FD4FF4C9
:1023B00070408DE8310069460548FEF7C9FD07B059
:1023C000F0BD000030380240001002400020024002
:1023D000000402400D4810B50B4901600C494160F2
:1023E00000214FF480428160C0E9031241618161A4
:1023F000C1610162FEF7B4FE002803D0BDE81040C1
:10240000FEF77BB810BD000000580040800000209F
:10241000801A060010B596B000240F941094119401
:10242000129413941C2108A81494FDF794FF202102
:102430006846FDF790FF2A482849016040F247317D
:10244000C0E901146321C0E903148021C0E90541FA
:10245000FFF742FB08B1FEF750F84FF480500F90A1
:102460000FA91F48FFF7DEFB08B1FEF746F81C482E
:10247000FFF7A3FD08B1FEF740F8139413A918481D
:102480001494FFF7E1FA08B1FEF737F860200890DE
:102490003220CDE909040420CDE90B4002460D9419
:1024A00008A90F480E94FFF722FD08B1FEF725F8A2
:1024B00000944FF40050CDE9044002940194039439
:1024C000694607480794FFF795FA08B1FEF715F833
:1024D0000348FFF7C9FC16B010BD00000000014022
:1024E000D400002010B586B0002416480094019452
:1024F0000294039404944FF080410594016040F2EB
:102500004731C0E90114C721C0E903148461FFF712
:10251000E3FA08B1FDF7F1FF4FF4805000906946EF
:102520000848FFF77FFB08B1FDF7E7FF049404A913
:1025300004480594FFF788FA002801D0FDF7DDFF75
:1025400006B010BD1C01002010B596B000240F94F9
:1025500010941194129413941C2108A81494FDF75C
:10256000FAFE20216846FDF7F6FE2A482849016058
:1025700040F2A311C0E901146321C0E903148021D2
:10258000C0E90541FFF7A8FA08B1FDF7B6FF4FF41F
:1025900080500F900FA91F48FFF744FB08B1FDF7CB
:1025A000ACFF1C48FFF709FD08B1FDF7A6FF139427
:1025B00013A918481494FFF747FA08B1FDF79DFFD7
:1025C000602008903220CDE909040420CDE90B40B9
:1025D0000D94002208A90F480E94FFF788FC08B15B
:1025E000FDF78BFF00944FF40050CDE904400294B6
:1025F00001940394694607480794FFF7FBF908B173
:10260000FDF77BFF0348FFF72FFC16B010BD00005D
:1026100000040140640100200D4810B50B49016021
:102620000C49416000214FF480628160C0E90312CF
:102630000422C0E90521C161FFF793FD002803D002
:10264000BDE81040FDF759BF10BD00000048004034
:10265000AC010020A0860100FEE7FEE7A0B1D0EDAE
:10266000121AC0ED131A90ED111A80ED121AC0ED76
:10267000080A80ED090A30EEC00A80ED110A0178DF
:1026800029B1012951D08EE09FED480A7047D0ED65
:10269000070AD0ED0B1AB7EE002AD0ED012A60EE42
:1026A000A11A72EE600A60EEA20A40EE801AC0ED36
:1026B0000B1AD0ED0C0AD0ED022A42EE800A30EE61
:1026C000410AC0ED0C0AD0ED0F2AC0ED102AD0ED62
:1026D0000E2AC0ED0F2A80ED0E0AD0ED062A90EDED
:1026E0000D1A32EE622A22EE811AD0ED032A22EE72
:1026F000222A02EE001A80ED0D1A90ED050AF4EE82
:10270000C00AF1EE10FA09DCB1EE400AF4EEC00A9C
:10271000F1EE10FA02D390ED0C0A01E080ED0C0A04
:1027200031EE800A30EE010A2BE070EE410A90EDA6
:10273000012A60EE820AC0ED0B0A90ED022A22EE19
:10274000002A80ED0C2AD0ED0F2A70EE820AC0ED2F
:10275000102AD0ED0E2AC0ED0F2AF0EE002A01EE6D
:10276000620A30EE210A80ED0E0A90ED031A21EE86
:10277000000A80ED0D0A30EE800AD0ED0A0A30EE34
:10278000200A80ED0A0AD0ED040AB4EEE00AF1EE68
:1027900010FA06DCF1EE600AB4EEE00AF1EE10FA8F
:1027A00001D2C0ED0A0A90ED0A0A7047000000004D
:1027B00000282CD0002A2AD0017092ED001A80ED5A
:1027C000011A92ED011A80ED021A92ED021A80EDC3
:1027D000031A80ED040A9FED0E0AC0ED050A80ED94
:1027E000060A80ED070A80ED100A80ED0F0A80EDE1
:1027F0000E0A80ED0A0A80ED0D0A80ED0C0A80EDCC
:102800000B0A80ED130A80ED120A80ED110A704761
:10281000000000007047000030B5144B1C6865696B
:1028200045F0400565611B68DC6844F01004DC601D
:102830000F4B1C68256825F0010525601C6825687C
:10284000ED07F7D11D680B4CAC601C68E0601868A0
:102850000161186842601868016841F480210160D4
:102860001868016841F00101016030BDAC01002031
:10287000F0010020044800407047FEF769BD0000E9
:1028800030B593B030216846FDF765FD14210CA8E2
:10289000FDF761FD1D480025016841F08051016090
:1028A000006800F0805011901948016841F480419F
:1028B00001600068022400F4804011900120009023
:1028C000000401908001CDE9064006200890A82070
:1028D000CDE9090404200B906846FEF7BFFE08B15D
:1028E00072B6FEE70CA90F2081E831004FF4A0502A
:1028F0000F904FF48050109005210CA8FEF7C2FDF8
:10290000002801D072B6FEE713B030BD4038024057
:10291000007000400248016841F470010160704796
:1029200088ED00E00148FFF7ECB900001C01002031
:10293000F0B50268254C264D264E274F274B4FF009
:10294000804CA04209D0604507D0A84205D0B042D3
:1029500003D0B84201D0984204D122F0700E4A68E8
:1029600042EA0E02A0421BD0604519D0A84217D0FF
:10297000B04215D0B84213D0984211D0184DA84299
:102980000ED0184DA8420BD0174DA84208D0174DB5
:10299000A84205D0164DA84202D0164DA84203D138
:1029A00022F44075CA682A434D6922F080022A4306
:1029B00002608A68C2620A688262A04201D09842BC
:1029C00001D10969016301214161F0BD00000140AD
:1029D0000004004000080040000C004000040140DA
:1029E0000040014000440140004801400018004000
:1029F000001C00400020004010B501F01F03012121
:102A0000046A99408C430462016A9A40114301624E
:102A100010BD10B5846842EA032224F47F440A43BF
:102A20002243826010BD816201214161704782684A
:102A300022F070020A4342F00701816070470000F3
:102A4000F0B5026A22F001020262036A42688469F8
:102A5000124E24F073050C682C4323F002058B689A
:102A60002B430D4DA84201D0B04205D123F00807F9
:102A7000CB683B4323F00403A84201D0B04205D108
:102A80004D6922F4407215438A692A434260846189
:102A9000496841630362F0BD000001400004014049
:102AA000F0B5026A22F010020262026A4368846989
:102AB0000D6824F4E64444EA05248D6822F02002DF
:102AC00042EA05120F4D104EA84201D0B04206D185
:102AD000CF6822F0800242EA071222F04002A842A8
:102AE00001D0B04207D14D6923F4406343EA850326
:102AF0008D6943EA850343608461496881630262AA
:102B0000F0BD00000000014000040140F0B5026A81
:102B100022F480720262026A4368C46922F400727D
:102B200024F073050C68124E2C438D6842EA05228E
:102B30000E4DA84201D0B04206D1CF6822F4006207
:102B400042EA072222F48062A84201D0B04207D1B3
:102B50004D6923F4405343EA05138D6943EA051395
:102B60004360C4614968C1630262F0BD0000014076
:102B70000004014030B5026A22F480520262046A05
:102B80004268C3690D6823F4E64343EA05238D6870
:102B900024F4005444EA0534084DA84202D0084DFC
:102BA000A84204D14D6922F4804242EA8512426073
:102BB000C36149680164046230BD00000000014047
:102BC0000004014010B5036A046A24F001040462A1
:102BD000846924F0F00444EA021423F00A020A4350
:102BE0008461026210BD10B5036A23F01003036212
:102BF0008369046A23F4704343EA023224F0A00399
:102C000043EA01118261016210BD000070B5044603
:102C100000680169E26821F44051114301612169B2
:102C2000A068E26908436169114308432168CA68E2
:102C300049F20C639A430243CA6020684169A26961
:102C400021F440711143416131492068884202D02A
:102C50003049884202D1FEF7BFFC01E0FEF7ACFC30
:102C6000E2690023192164253226B2F5004F62681B
:102C700028D0A0FB0101930F9200FDF7F5FA014661
:102C8000B0FBF5F06FF01802504301EB800006EB4B
:102C90000010B0FBF5F000F0F002B1FBF5F002EB34
:102CA0000012B1FBF5F06FF01803584301EB800000
:102CB00006EB0010B0FBF5F000F00F0021681044A7
:102CC000886070BDA0FB010192185B41FDF7CCFA52
:102CD0000146B0FBF5F00201B1FBF5F06FF018030F
:102CE000584301EB800006EBC000B0FBF5F000F0AC
:102CF000F80002EB4002B1FBF5F0584301EB800015
:102D000006EBC000B0FBF5F000F00700D6E70000CE
:102D10000010014000140140264818B40068016802
:102D2000890604D501684068009018BC70472249A4
:102D30000968C906F9D501684068204A0090106802
:102D400001684FF024030C031D49046824F00104BA
:102D5000046016D410684468C4F12404A4B20C8042
:102D600043601068016841F4002101601068016847
:102D700041F001010160122CD7D1124901F1160076
:102D800015E014686068C0F1240080B208806360B8
:102D90000D498B6A23F400238B6211680A6842F0A4
:102DA00001020A601228C0D1064901F13A0018BC9C
:102DB00000F03AB9AC01002000480040F0010020CA
:102DC000100000205002002000600240FEE70907CA
:102DD000090E002804DB00F1E02080F800147047A1
:102DE00000F00F0000F1E02080F8141D7047000093
:102DF00000B58BB000200121CDE9060108910090BB
:102E00000190029003900590049069460548FDF7F3
:102E1000F7FB0448FDF71CFF02210248FDF76FFB9A
:102E20000BB000BD58000020FEF79AFAFFF728FD0E
:102E3000FFF75CFAFFF744FAFFF7EEFBFFF71EFA25
:102E4000FFF7E8FAFFF780FBFFF7C4FAFFF74AFB4A
:102E500000F0E2F8FFF7CCFF00F0A2F90D48FEF712
:102E6000A1FE0D4C0D4D0E4E94ED0A0A3288BDEEBA
:102E7000C00A12B210EE100A95ED0A0A01B2BDEEB8
:102E8000C00A10EE100A00B2FDF7D0FA0220FEF7D9
:102E90004DF8E9E71C01002060030020100300202A
:102EA0002C00002070B517490025174CC87A03285C
:102EB00002D0022805D01CE0144805801448058083
:102EC00017E0887A012804D0032808D002280ED001
:102ED0000FE0207864280CD100F016F909E00D48C5
:102EE00000F028F80C4800F025F8257001E000F00B
:102EF00015F800F02BF92078401C20706078401CF9
:102F0000607070BD5002002054000020240000209A
:102F10002C00002000000140000401400348044947
:102F2000B0F9020000EB8000C8607047500200203A
:102F3000200000202DE9F05FDFF8C09042F210750C
:102F40002F49DFF8C0B06E426FF0310748452DD1F0
:102F5000B1F90440DFF8B0A04FF40058322C0BDB7D
:102F60004FF480515046FEF7EBF8012804D095FB52
:102F7000F4F4012241460CE0BC4214DC45464146D3
:102F80005046FEF7DDF801280DD096FBF4F4002240
:102F900029465846FEF7D9F821464846FFF743FD33
:102FA00004211A481DE00421184820E0184A9042E4
:102FB00021D1B1F902004FF48041322803DB95FBA7
:102FC000F0F4002204E0B8420FDC96FBF0F401229A
:102FD0005846FEF7BAF821464846FFF724FD0D484B
:102FE0000021BDE8F05FFFF717B80A480021BDE8EF
:102FF000F05FFFF775B8BDE8F09F000000000140EA
:10300000500200200010024000040240D4000020C2
:10301000000401406401002002492422A1F124009F
:10302000FFF7FABB8A020020F0B5002855D000292E
:1030300053D00278437842EA0322C2F30A020A809C
:1030400043788478DB0843EA4413C3F30A034B80D4
:103050008478C578A40944EA8504057944EA85247E
:10306000C4F30A048C80057946796D0845EAC615D3
:10307000C5F30A05CD804679C6F301168E724679EE
:10308000B609CE728679C77946EA07268E81067A16
:10309000477A46EA0726CE81867AC77A46EA072625
:1030A0000E82067B8E74467BCE74867BC77B46EA97
:1030B00007268E82067C407CA2F580620A80A3F5FA
:1030C00080634B80A4F5806446EA00208C80A5F5DF
:1030D0008065CD80A0F580600881F0BD0848094971
:1030E000B0F902204868C82A02DD00F5FA7004E051
:1030F00012F1C80F02DAA0F5FA70486070470000BC
:1031000050020020200000200F4B00B5586842F20A
:103110001C51884201DD596000BD002802DA002000
:10312000586000BD187810B1012806D007E04FF4B0
:10313000FA5058600120187001E098685860FFF755
:10314000CDFF5868986000BD2000002070B5114C7C
:10315000114DB4F9020000EE100A2888404200EE3A
:10316000900AB8EEC00A0D48F8EEE00AFFF776FACA
:10317000B4F90C0000EE100A2888BDE8704000EE9B
:10318000900A0648B8EEC00AF8EE600A5030FFF721
:1031900065BA0000B00200202400002010030020C7
:1031A00010B5164A00212DED028B9FED128ADFED3E
:1031B000128A1348F0EE480AB0EE680AFFF7F8FAF0
:1031C0000E4A0F48F0EE480AB0EE680A0C320021B1
:1031D0005030FFF7EDFA094A09481832BDEC028B6E
:1031E0000021BDE81040F2EE040A9FED060AA0306F
:1031F000FFF7DEBA0000FA4400007A4630000020F3
:103200001003002000007A444FF04070E1EE100AF5
:10321000704700061016000610160000000000009F
:103220000000010203040607080900000000010273
:103230000304000054320008000000205800000081
:10324000C4010008AC32000858000020080A000041
:10325000E001000801000000100000000000000074
:103260000024F40000000000000000000000000046
:10327000000000000000000000000000000000004E
:10328000000000000000F0416F12833ACDCC4C3FAB
:103290000000F0416F12833ACDCC4C3F0000C84390
:0C32A0000AD7233C000010410000000091
:040000050800018965
:00000001FF
