:020000040800F2
:1000000030080020290200084F1C00086919000868
:100010004D1C00081F040008F52100080000000026
:10002000000000000000000000000000B51C0008F7
:10003000B504000800000000511C0008B71C0008AF
:10004000430200084302000843020008430200087C
:10005000430200084302000843020008430200086C
:10006000430200084302000843020008430200085C
:100070002D04000843020008430200084302000860
:10008000430200084302000843020008430200083C
:10009000210400084302000843020008430200084C
:1000A000430200084302000843020008430200081C
:1000B000430200084302000843020008430200080C
:1000C00043020008430200084302000843020008FC
:1000D00043020008430200084302000841210008CF
:1000E00043020008430200084302000843020008DC
:1000F00043020008430200084302000843020008CC
:1001000043020008430200084302000843020008BB
:1001100043020008430200084302000843020008AB
:10012000430200084302000843020008430200089B
:10013000430200084302000843020008430200088B
:10014000430200084302000843020008430200087B
:10015000430200084302000843020008430200086B
:10016000430200084302000843020008430200085B
:100170004302000843020008430200080000000098
:10018000430200084302000800F002F800F03CF8C7
:100190000AA090E8000C82448344AAF10107DA45E2
:1001A00001D100F031F8AFF2090EBAE80F0013F0F8
:1001B000010F18BFFB1A43F001031847802100000C
:1001C000A0210000103A24BF78C878C1FAD852079D
:1001D00024BF30C830C144BF04680C6070470000C1
:1001E0000023002400250026103A28BF78C1FBD840
:1001F000520728BF30C148BF0B6070471FB502F0DF
:1002000087F81FBD10B510BD00F0CFF81146FFF7FD
:10021000F5FF02F001F800F0EDF803B4FFF7F2FF8C
:1002200003BC00F0F5F80000094880470948004782
:10023000FEE7FEE7FEE7FEE7FEE7FEE7FEE7FEE796
:10024000FEE7FEE704480549054A064B70470000F3
:10025000511D0008890100083002002030080020EC
:10026000300400203004002053EA020C00F06980C2
:100270002DE9F04B4FF00006002B1FBFB3FA83F5BA
:1002800003FA05F424FA05F65E4012BF1643B2FAEB
:1002900082F502FA05F4C5F120051EBF22FA05FC1D
:1002A00044EA0C04203556EA044C4FEA144418BFC3
:1002B000641C4FF000084FF00009904271EB030CF2
:1002C00039D3002919BFB1FA81F701FA07F6B0FA5C
:1002D00080F700FA07F6C7F120071EBF20FA07FCD7
:1002E00046EA0C062037B6FBF4FCA7EB0507103FE7
:1002F00007F01F0BCBF120060CFA0BFB2CFA06F6CD
:1003000044BFB3460026202FA4BF5E464FF0000B2B
:100310005BEA060C08BF4FF0010B19EB0B09ABFBB6
:10032000027C48EB0608C01B06FB02CC0BFB03CC8F
:1003300071EB0C01C1E70B46024641464846BDE859
:10034000F08B13B54FF000004FF00001AFF30080C9
:10035000BDE81C4070474FF0000200B513469446BC
:100360009646203922BFA0E80C50A0E80C50B1F10D
:100370002001BFF4F7AF090728BFA0E80C5048BF21
:100380000CC05DF804EB890028BF40F8042B08BFBF
:10039000704748BF20F8022B11F0804F18BF00F8BB
:1003A000012B7047704770477047754600F02CF876
:1003B000AE4605006946534620F00700854618B052
:1003C00020B5FFF73FFFBDE820404FF000064FF09B
:1003D00000074FF000084FF0000B21F00701AC467A
:1003E000ACE8C009ACE8C009ACE8C009ACE8C00999
:1003F0008D46704710B50446AFF300802046BDE837
:100400001040FFF70ABF000000487047D0010020ED
:1004100001491820ABBEFEE7260002007047FEE748
:10042000014800F04BB8000014000020014800F023
:1004300019BA00001001002001681823CAB2103A4E
:10044000B2FBF3F2054B6FF30901032A9B5CC36512
:1004500000D9091D81650846704700001A2300086D
:1004600010B5014600208B698A6A4FF0C07453B101
:10047000B3F5005F15D072B1012A0CD0022A0AD060
:10048000032A09D104E01AB1012A06D0022A03D1B5
:10049000C96AC90100D5012010BDC96AA142FAD0BC
:1004A00010BD002AF7D0012AF2D0022AF3D0032A85
:1004B000F3D010BD704772B6FEE770472DE9F05FCC
:1004C0000546006800244669D0F804908768D0F893
:1004D0000CB0D0F810A0D0F81880F10748D0F90778
:1004E00014D001218160B80703D5284600F0B4F983
:1004F0000CE0780702D54FF4006407E0380702D516
:100500004FF4805402E0284600F0A5F9F80516D50E
:1005100029684FF480708860B80503D5284600F03C
:100520009DF90CE0780502D544F4005407E0380545
:1005300002D544F4804402E0284600F08EF9F80326
:1005400016D529684FF480308860B80303D5284653
:1005500000F086F90CE0780302D544F4004407E08B
:10056000380302D544F4803402E0284600F077F9DD
:10057000300707D55FEACB6004D52968102044F422
:100580000074C86070074FF0080707D55FEA0B706A
:1005900004D52868C760284600F058F9B00706D58A
:1005A0002868C068800702D0284600F050F970061D
:1005B00007D55FEACA6004D52968102044F4806436
:1005C0000861B00607D55FEA0A7004D5286807619C
:1005D000284600F03DF9F00606D528680069800736
:1005E00002D0284600F035F9B00308D55FEAC960AB
:1005F00005D5296810204860284600F02BF9F00343
:1006000007D55FEA097004D528684760284600F0DE
:1006100028F9300446D55FEA497040D5F00504D585
:100620005FEAC87001D044F00104B00504D55FEA68
:10063000887001D544F00204700504D55FEA487063
:1006400001D544F00404300529D518F0700F26D0E8
:1006500008F07000402815D006DC102809D02028AA
:100660000AD0302816D10AE050280ED0602811D1C7
:100670000EE044F008040DE044F010040AE044F0F9
:10068000200407E044F0400404E044F0800401E06A
:1006900044F480742868816921F0700181612968BF
:1006A00004204860002C05D0686A20436862284610
:1006B000FFF703FFBDE8F09F70B5040003D094F886
:1006C000200010B104E0012070BD204600F082F847
:1006D0002068016841F00101016000F0FBFA054665
:1006E000052604E000F0F6FA401B0A2811D820681D
:1006F0004068C007F6D02068016821F0020101605F
:1007000000F0E8FA05460BE000F0E4FA401B0A2886
:1007100006D9606A40F40030606284F82060D2E755
:10072000206840688007EFD4207E01282068016897
:100730003DD021F080010160607E012820680168C1
:1007400038D021F040010160A07E012820680168B6
:1007500033D021F020010160E07E0128206801688B
:100760002ED041F010010160207F0128206801682F
:1007700029D021F008010160607F0128206801680C
:1007800024D021F004010160D4E902010843D4E936
:100790000412114308436168491E08432168C86177
:1007A00000206062012084F82000002070BD41F02C
:1007B0008001C0E741F04001C5E741F02001CAE7F0
:1007C00021F01001CFE741F00801D4E741F0040126
:1007D000D9E7000010B586B0044614216846FFF73B
:1007E000BAFD17492068884227D1164800210268BF
:1007F00042F000720260006800F00070059011483D
:100800001038026842F0080202600068022200F01C
:10081000080005900320CDE90210CDE9000209206F
:1008200004906946084800F057F900221146142048
:1008300000F0BEFA142000F0ADFA06B010BD0000C2
:100840000064004040380240000C0240704770478E
:1008500070477047704770477047704770477047E0
:10086000704770472DE9F84304464FF00009CDF872
:10087000009063484FF41651A56D0068B0FBF1F786
:100880002E6894F85C10082000FA01F131420FD074
:1008900021680A6852070BD50A6822F004020A6030
:1008A00094F85C108840A860606D40F001006065BD
:1008B00094F85C104FF0010808FA01F0304208D0BB
:1008C00021684969090604D5A860606D40F00200FE
:1008D000606594F85C1004208840304208D021689C
:1008E0000968890704D5A860606D40F00400606560
:1008F00094F85C1010208840304218D021680968B4
:10090000090714D5A86020680168490304D5006868
:10091000000308D5A16C07E00168C90503D401688C
:1009200021F008010160216C09B12046884794F844
:100930005C1020208840304231D021680968C90607
:100940002DD5A86094F8350005282068016806D0E8
:10095000490347D5006800031DD4616C1CE021F0F9
:10096000160101602068416921F080014161206C1D
:1009700008B9A06C20B12068016821F0080101606D
:1009800094F85C103F208840A86084F8358084F893
:100990003490216D1FE0E16B09B120468847606DFE
:1009A00000282BD0606DC00714D0052084F83500D6
:1009B0002068016821F0010101600098401C00904E
:1009C000B84203D820680068C007F6D184F83580A3
:1009D00084F83490E16C002910D001B02046BDE8C5
:1009E000F04308470168C905D5D4016821F010011A
:1009F000016084F8358084F83490CCE7BDE8F88352
:100A00000C0000202DE9F041044600F063F9064691
:100A10005CB1022084F83500002584F83450206849
:100A2000016821F0010101600DE00120BDE8F081C5
:100A300000F050F9801B052805D9202060650320AF
:100A400084F83500F2E720680068C007F0D122681A
:100A5000116820480140D4E901031843D4E9033662
:100A60003343184363691843A3691843E369184380
:100A7000236A18430843616A042903D1D4E90B139C
:100A800019430843106020684069666A20F0070136
:100A900030460E43012704280CD1A06A0643E06AC1
:100AA00040B12046FFF7DCFC20B14020606584F8AF
:100AB0003570BAE7206846612046FFF7BDFC94F820
:100AC0005C203F2191408160656584F8357000208D
:100AD000ACE700003F8010F02DE9F84FDFF8BCA133
:100AE000002201250AF1040B03264FF00F090BF138
:100AF000040E00BF0B6805FA02F42340A34270D134
:100B00000F7907F00307012F01D0022F16D1876854
:100B10004FEA420806FA08FC27EA0C07D1F80CC095
:100B20000CFA08FC4CEA070CC0F808C04768A74359
:100B30000C79C4F3001494403C4344600C79E443C2
:100B4000A4070AD0C4684FEA420C06FA0CF7BC436B
:100B50008F6807FA0CF72743C7600C7904F0030489
:100B6000022C12D1D40800EB840CDCF8204057078B
:100B7000FF0E09FA07F824EA0804D1F8108008FAF1
:100B800007F848EA0408CCF8208004684FEA420CD1
:100B900006FA0CF7BC430F7907F0030707FA0CF7C6
:100BA000274307604C6814F4403F70D03C4C2768E2
:100BB00047F480472760246822F0030704F4804448
:100BC0000094384C07EB040CDCF8084897074FEA10
:100BD000177809FA08F7BC43334FB84202D100270F
:100BE00024E054E0314FB84201D101271EE0304FDC
:100BF000B84201D1022719E02E4FB84201D1032794
:100C000014E02D4FB84201D104270FE02B4FB8421A
:100C100001D105270AE02A4FB84201D1062705E095
:100C2000284FB84201D1072700E0082707FA08F744
:100C30002743CCF80878DAF800405746D1F804C0CA
:100C40009C435FEACC3C00D51C433C60DBF8004091
:100C50005F46D1F804C09C435FEA8C3C00D51C433E
:100C60003C60DEF800407746D1F804C09C435FEA60
:100C7000CC2C00D51C433C60084F0C373C68D1F8A5
:100C800004C09C435FEA8C2C00D51C433C60521C82
:100C9000102AFFF42FAFBDE8F88F0000003C0140A0
:100CA000443802400030014000000240000402408D
:100CB00000080240000C02400010024000140240F4
:100CC00000180240001C02400AB18161704709040B
:100CD000FBE700000148806870470000000000202A
:100CE000024881680278114481607047000000204A
:100CF0000B4810B5016841F400710160016841F4CE
:100D000080610160016841F480710160032000F09E
:100D10006FF80F2000F006F800F024F8002010BD56
:100D2000003C024070B50D4D04464FF47A712878AE
:100D3000B1FBF0F00A490968B1FBF0F000F00CFBE0
:100D400048B9102C07D200222146501E00F030F87E
:100D500000206C6070BD012070BD0000000000200C
:100D60000C0000200A4808B5016841F48041016088
:100D7000006800F4804000900548001F016841F0C1
:100D800080510160006800F08050009008BD0000B4
:100D900044380240002809DB00F01F020121914085
:100DA0004009800000F1E020C0F800117047000009
:100DB000F0B40E4B1B680C46C3F30223C3F10705C6
:100DC000042D00D90425191D072901D2002300E0B4
:100DD000DB1E012606FA05F1491E214099409E407E
:100DE000761E16403143F0BC01F005BA0CED00E070
:100DF000064900F0070208684FF6FF03184040EA72
:100E00000220034A10430860704700000CED00E028
:100E10000000FA052DE9F0470E46050065D0DFF821
:100E20001481D8F80000F7B200F00700B04207D2F2
:100E300088F80070D8F8000000F00700B04254D1E4
:100E400028683D4C810712D5400703D5206840F43F
:100E5000E05020602878000703D5206840F4604007
:100E600020602068A96820F0F000084320602878FE
:100E7000C0072DD0304968680839012812D00228EF
:100E800013D0032811D00968890700292DDA2168B9
:100E900021F0030101432160FFF71CFF814641F26D
:100EA000883A0EE009688903EFE709688901ECE7F1
:100EB000FFF710FFA0EB0901514502D90320BDE85F
:100EC000F0872068696800F00C00B0EB810FEFD16B
:100ED000D8F80010404601F00701B14207D9077069
:100EE000006800F00700B04201D00120E7E7287851
:100EF000400705D52068E96820F4E05008432060E9
:100F00002878000706D52068296920F4604040EA67
:100F1000C100206000F038F82168084AC1F30311CD
:100F2000515CC8400649086006480068FFF7FAFEB1
:100F30000020C4E7003C0240083802402223000899
:100F40000C000020040000200448054900680968DE
:100F5000044AC1F38221515CC84070470C00002054
:100F6000083802403223000804480549006809682F
:100F7000044AC1F34231515CC84070470C00002064
:100F80000838024032230008154810B5006810F0F8
:100F90000C02144813D01449042A0FD0082A0ED189
:100FA0000F4C241F2268236802F03F025B0207D522
:100FB0002068C0F38810A0FB010106E0084610BDC0
:100FC0002168C1F38811A1FB00010023FFF74CF950
:100FD0002168C1F30141491C4900B0FBF1F010BD8B
:100FE000083802400024F400001BB7002DE9F84F38
:100FF00004006ED02078DFF84C93C007A9F10405F7
:101000004AD009F104000168C1F38101012908D027
:101010000068C0F3810002280AD1D9F8000040021C
:1010200006D52868800337D560680028E1D033E012
:101030006068B0F5803F10D0B0F5A02F286810D0C0
:1010400020F480302860286820F4802028606068C0
:10105000A8B1FFF73FFE06460DE0286840F4803057
:10106000F4E740F480202860F7E700BFFFF732FE86
:10107000801B642873D828688003F7D50CE0FFF73D
:1010800029FE064605E000BFFFF724FE801B64280A
:10109000F0D828688003F7D42078DFF8AC82800786
:1010A0004FF0000A3ED5A748001D016811F00C0F53
:1010B00008D00068C0F3810002280BD1D9F80000E5
:1010C000400207D42868800716D5E068012800D1BF
:1010D00012E033E1E068B8B10120C8F80000FFF782
:1010E000F9FD064605E000BFFFF7F4FD801B02286E
:1010F000C0D828688007F7D52868216920F0F80053
:1011000040EAC10028600DE0C8F800A0FFF7E2FD4A
:10111000064604E0FFF7DEFD801B02281FD8286882
:101120008007F7D42078000722D5864F8748616969
:10113000703771B101210160FFF7CCFD064604E074
:10114000FFF7C8FD801B022809D838688007F7D54B
:101150000EE0C0F800A0FFF7BDFD064605E082E006
:10116000FFF7B8FD801B02287DD838688007F7D4C8
:101170002078400768D5DFF8CCB100270BF13C0B95
:10118000DBF80000C0000BD4DBF8001041F0805108
:10119000CBF80010DBF80000012700F08050009031
:1011A0006B4E3068C00510D4306840F480703060F9
:1011B000FFF790FD009005E0FFF78CFD0099401AC5
:1011C000022850D83068C005F6D55E4EA0686C364F
:1011D00001280FD00528306810D020F001003060C1
:1011E000306820F004003060A068B8B1FFF772FDED
:1011F00000900FE0306840F00100F4E740F0040098
:101200003060F7E7FFF766FD0099411A41F2883038
:10121000814266D830688007F4D50EE0FFF75AFDAA
:10122000009007E0FFF756FD0099411A41F288301F
:10123000814256D830688007F4D42FB1DBF8001013
:1012400021F08051CBF80010A069C8B33D49091DB9
:101250000968C1F3810102294AD00228504607D00B
:10126000C8F8600000E03CE0FFF734FD04463BE0D6
:101270004746C8F86000FFF72DFD064605E000BFB1
:10128000FFF728FD801B02282BD828688001F7D49F
:10129000D4E907010843A16A2E4A490802EB01413B
:1012A000626A41EA8211084394F82C1040EA016115
:1012B000C9F8001001203866FFF70CFD044606E06F
:1012C0003EE000BFFFF706FD001B022809D8286892
:1012D0008001F7D534E000BFFFF7FCFC001B0228BB
:1012E00002D90320BDE8F88F28688001F4D427E0F4
:1012F0000128F7D0D9F80000E26900F4800191429A
:101300001CD1226A00F03F01914217D147F6C0710B
:10131000626A0140B1EB821F10D1A26A4FF0FF3325
:1013200000F4403103EB5202B1EB024F06D194F8C6
:101330002C1000F07060B0EB016F01D00120D1E7FC
:101340000020CFE70438024000004742800E4742A9
:10135000007000400000FFFF10B5401EB0F1807F1C
:1013600001D3012010BD4FF0E02460610F21601710
:1013700000F041FF0020A06107202061002010BD87
:1013800010B590F83C20012A22D0012280F83C20A0
:10139000CA688C6822F4407222434C6822F480624E
:1013A00022430C6822F4006222430C6922F480522A
:1013B00022434C6922F400522243C969002322F4DB
:1013C00080420A4301684A6480F83C30002010BD26
:1013D000022010BD70B590F83C20012A32D00124C3
:1013E00080F83C40022280F83D2003685A689D68DE
:1013F00022F070060A6832435A60134B02689A4220
:1014000014D0B2F1804F11D0104B9A420ED0104B35
:101410009A420BD00F4B9A4208D00F4B9A4205D0FC
:101420000E4B9A4202D00E4B9A4204D1496825F0E5
:1014300080031943916080F83D40002180F83C1002
:10144000084670BD022070BD00000140000400404D
:1014500000080040000C0040000401400040014032
:101460000018004010B5040003D094F83D0010B1FE
:1014700007E0012010BD002084F83C00204600F069
:101480001FF8022084F83D00211D206800F068FC50
:10149000012084F8460084F83E0084F83F0084F878
:1014A000400084F8410084F8420084F8430084F846
:1014B000440084F8450084F83D00002010BD000081
:1014C00008B50C4A01680C48914207D1016841F007
:1014D00001010160006800F0010009E0074A914243
:1014E00007D1016841F002010160006800F00200CC
:1014F000009008BD00000140443802400004014053
:1015000070B5044690F83C000025012817D001264C
:1015100084F83C60022084F83D002068826822F054
:10152000770222F47F4282600868502838D00DDCB0
:1015300020284FD005DC90B3102811D14AE00220BA
:1015400070BD302846D040280AD13BE060282FD01B
:1015500070280DD0B0F5805F03D0B0F5005F12D0D9
:10156000012584F83D60002084F83C00284670BDC9
:10157000CB68D1E90121206800F063FC2068816814
:1015800041F0770109E0CB68D1E90121206800F042
:1015900058FC2068816841F480418160E1E719E0EE
:1015A000CA684968206800F021FD5021206806E0E3
:1015B000CA684968206800F02AFD6021206800F0B0
:1015C0004AFCCEE7CA684968206800F00FFD402158
:1015D0002068F4E7226801461046F0E730B587B08E
:1015E000044614216846FEF7B6FE2468174D002114
:1015F000174802230322AC4211D1046844F01004BE
:1016000004600068CDE9021200F010000590980215
:10161000CDE900030120049069460E4812E00E4D0A
:10162000AC4211D1046844F0040404600068CDE9C0
:10163000021200F0040005904020CDE90003694645
:1016400004920648FFF748FA07B030BD0000014099
:1016500030380240001002400004014000080240FF
:1016600070B5044690F83C0000260D4601280FD0C6
:10167000012084F83C006AB1042A1DD0082A2FD02A
:101680000C2A3FD00126002084F83C00304670BD73
:10169000022070BD206800F0E7FB2068816941F0FE
:1016A000080181612068816921F00401816120685D
:1016B00081692A69114311E0206800F005FC206867
:1016C000816941F4006181612068816921F4806150
:1016D0008161206881692A6941EA02218161D2E73A
:1016E000206800F027FC2068C16941F00801C16151
:1016F0002068C16921F00401C1612068C1692A69BB
:10170000114311E0206800F049FC2068C16941F4F0
:101710000061C1612068C16921F48061C1612068F4
:10172000C1692A6941EA0221C161ACE710B5040030
:1017300003D094F83D0010B107E0012010BD002057
:1017400084F83C00204600F01EF8022084F83D009A
:10175000211D206800F004FB012084F8460084F875
:101760003E0084F83F0084F8400084F8410084F88B
:10177000420084F8430084F8440084F8450084F86B
:101780003D00002010BD704710B50446022249B14B
:1017900004290ED0082913D094F84100012816D04E
:1017A000012010BD94F83E000128F9D184F83E20B4
:1017B0000FE094F83F000128F2D184F83F2008E0C0
:1017C00094F840000128EBD184F8402001E084F82F
:1017D00041200122206800F027FB16492068164AA4
:1017E000884201D0904203D1436C43F400434364E8
:1017F0002068884213D0B0F1804F10D00F49884242
:101800000DD00F4988420AD00E49884207D0904235
:1018100005D00D49884202D00C49884204D1816824
:1018200001F00701062903D0016841F001010160C0
:10183000002010BD000001400004014000040040F1
:1018400000080040000C004000400140001800402B
:1018500070B5040004D094F83D00002510B106E0F6
:10186000012070BD84F83C50204600F023F824206D
:1018700084F83D002068C16821F40051C160204611
:1018800000F0D8FB2068016921F4904101612068D3
:10189000416921F02A0141612068C16841F4005189
:1018A000C1602564202084F83D0084F83E000020BB
:1018B00070BD000070B586B0064614216846FEF77C
:1018C0004AFD24493068884242D1234800250168F6
:1018D00041F480210160006800F4802005901E48DA
:1018E0001038016841F0040101600068694600F0A9
:1018F000040005904FF4406000900220CDE90105FE
:1019000003200390072004901448FFF7E5F8154CD6
:10191000134820604FF00060C4E901054014C4E999
:10192000035065614FF44030A561C4E9075020467B
:101930006562FFF767F808B1FEF7BDFDB4630022EA
:1019400011462720A663FFF733FA2720FFF722FA74
:1019500006B070BD00480040403802400008024018
:101960002860024010010020FEE700000F4810B57B
:101970000D4901600321416000214FF41022816074
:10198000C0E903124FF4001242610176417681767C
:10199000C17601774177FEF78FFE002803D0BDE8BE
:1019A0001040FEF788BD10BD006400401400002008
:1019B000094808B5016841F400110160006800227F
:1019C00000F40010009011460C20FFF7F1F9BDE87B
:1019D00008400C20FFF7DEB93038024070B586B001
:1019E00014216846FEF7B7FC1E480025016841F047
:1019F00001010160016801F001010591016841F0F8
:101A000008010160016801F008010591016841F0D9
:101A100004010160016801F004010591016841F0D1
:101A200080010160016801F080010591016841F0C9
:101A30001001016000680C4E00F010004FF4C0442B
:101A40000590002221463046FFF73EF90120CDE9FE
:101A500000400220CDE9025069463046FFF73CF8CD
:101A600006B070BD303802400010024010B596B08C
:101A700000240F9410941194129413941C2108A81C
:101A80001494FEF768FC20216846FEF764FC2A489F
:101A90002849016040F2A311C0E901146321C0E9A3
:101AA00003148021C0E90541FFF7DCFC08B1FEF713
:101AB00002FD4FF480500F900FA91F48FFF720FD43
:101AC00008B1FEF7F8FC1C48FFF730FE08B1FEF73E
:101AD000F2FC139413A918481494FFF77BFC08B187
:101AE000FEF7E9FC602008903220CDE909040420CB
:101AF000CDE90B4002460D9408A90F480E94FFF75C
:101B0000AFFD08B1FEF7D7FC00944FF40050CDE9CB
:101B10000440029401940394694607480794FFF730
:101B20002FFC08B1FEF7C7FC0348FFF757FD16B0BE
:101B300010BD0000000001403C00002010B596B030
:101B400000240F9410941194129413941C2108A84B
:101B50001494FEF700FC20216846FEF7FCFB2A489F
:101B60002849016040F2A311C0E901146321C0E9D2
:101B700003148021C0E90541FFF774FC08B1FEF7AA
:101B80009AFC4FF480500F900FA91F48FFF7B8FC44
:101B900008B1FEF790FC1C48FFF7C8FD08B1FEF73E
:101BA0008AFC139413A918481494FFF713FC08B186
:101BB000FEF781FC602008903220CDE90904042062
:101BC000CDE90B400D94002208A90F480E94FFF7B1
:101BD00047FD08B1FEF76FFC00944FF40050CDE9CB
:101BE0000440029401940394694607480794FFF760
:101BF000C7FB08B1FEF75FFC0348FFF7EFFC16B028
:101C000010BD000000040140840000200D4810B504
:101C10000B4901600C49416000214FF480628160F2
:101C2000C0E903120422C0E90521C161FFF710FEDB
:101C3000002803D0BDE81040FEF73DBC10BD0000F9
:101C400000480040CC000020A0860100FEE7FEE72F
:101C50007047000030B5144B1C68656945F04005BD
:101C600065611B68DC6844F01004DC600F4B1C6885
:101C7000256825F0010525601C682568ED07F7D16A
:101C80001D680B4CAC601C68E06018680161186846
:101C900042601868016841F4802101601868016899
:101CA00041F00101016030BDCC0000201001002096
:101CB000044800407047FFF713B8000030B593B0F8
:101CC00030216846FEF747FB14210CA8FEF743FBC2
:101CD0001D480025016841F080510160006800F056
:101CE000805011901948016841F4804101600068FA
:101CF000022400F480401190012000900004019023
:101D00008001CDE9064006200890A820CDE909040D
:101D100004200B906846FFF769F908B172B6FEE738
:101D20000CA90F2081E831004FF4A0500F904FF420
:101D30008050109005210CA8FFF76CF8002801D006
:101D400072B6FEE713B030BD40380240007000406C
:101D50000248016841F470010160704788ED00E0BD
:101D6000F0B50268254C264D264E274F274B4FF0E5
:101D7000804CA04209D0604507D0A84205D0B042AF
:101D800003D0B84201D0984204D122F0700E4A68C4
:101D900042EA0E02A0421BD0604519D0A84217D0DB
:101DA000B04215D0B84213D0984211D0184DA84275
:101DB0000ED0184DA8420BD0174DA84208D0174D91
:101DC000A84205D0164DA84202D0164DA84203D114
:101DD00022F44075CA682A434D6922F080022A43E2
:101DE00002608A68C2620A688262A04201D0984298
:101DF00001D10969016301214161F0BD0000014089
:101E00000004004000080040000C004000040140B5
:101E100000400140004401400048014000180040DB
:101E2000001C00400020004010B501F01F030121FC
:101E3000046A99408C430462016A9A40114301622A
:101E400010BD10B5846842EA032224F47F440A439B
:101E50002243826010BD826822F070020A4342F081
:101E60000701816070470000F0B5026A22F00102AC
:101E70000262036A42688469124E24F073050C689A
:101E80002C4323F002058B682B430D4DA84201D053
:101E9000B04205D123F00807CB683B4323F004038D
:101EA000A84201D0B04205D14D6922F440721543D9
:101EB0008A692A4342608461496841630362F0BDD4
:101EC0000000014000040140F0B5026A22F0100257
:101ED0000262026A436884690D6824F4E64444EAB5
:101EE00005248D6822F0200242EA05120F4D104EA3
:101EF000A84201D0B04206D1CF6822F0800242EA67
:101F0000071222F04002A84201D0B04207D14D6929
:101F100023F4406343EA85038D6943EA8503436004
:101F20008461496881630262F0BD000000000140E5
:101F300000040140F0B5026A22F480720262026A73
:101F40004368C46922F4007224F073050C68124ED1
:101F50002C438D6842EA05220E4DA84201D0B042C2
:101F600006D1CF6822F4006242EA072222F480629E
:101F7000A84201D0B04207D14D6923F4405343EA4F
:101F800005138D6943EA05134360C4614968C16361
:101F90000262F0BD000001400004014030B5026A59
:101FA00022F480520262046A4268C3690D6823F415
:101FB000E64343EA05238D6824F4005444EA0534DB
:101FC000084DA84202D0084DA84204D14D6922F420
:101FD000804242EA85124260C3614968016404623A
:101FE00030BD0000000001400004014010B5036A4C
:101FF000046A24F001040462846924F0F00444EAD1
:10200000021423F00A020A438461026210BD10B573
:10201000036A23F0100303628369046A23F47043A4
:1020200043EA023224F0A00343EA01118261016213
:1020300010BD000070B5044600680169E26821F433
:102040004051114301612169A068E2690843616957
:10205000114308432168CA6849F20C639A4302435A
:10206000CA6020684169A26921F44071114341614D
:1020700031492068884202D03049884202D1FEF7B7
:1020800073FF01E0FEF760FFE26900231921642578
:102090003226B2F5004F626828D0A0FB0101930FF1
:1020A0009200FEF7E1F80146B0FBF5F06FF0180280
:1020B000504301EB800006EB0010B0FBF5F000F0A0
:1020C000F002B1FBF5F002EB0012B1FBF5F06FF09E
:1020D0001803584301EB800006EB0010B0FBF5F04D
:1020E00000F00F0021681044886070BDA0FB010162
:1020F00092185B41FEF7B8F80146B0FBF5F002011B
:10210000B1FBF5F06FF01803584301EB800006EBCC
:10211000C000B0FBF5F000F0F80002EB4002B1FBAC
:10212000F5F0584301EB800006EBC000B0FBF5F082
:1021300000F00700D6E70000001001400014014045
:10214000264818B400680168890604D5016840680B
:10215000009018BC704722490968C906F9D5016882
:102160004068204A0090106801684FF024030C0377
:102170001D49046824F00104046016D41068446802
:10218000C4F12404A4B20C8043601068016841F4D7
:10219000002101601068016841F001010160122C0A
:1021A000D7D1124901F1160015E014686068C0F13A
:1021B000240080B2088063600D498B6A23F40023F9
:1021C0008B6211680A6842F001020A601228C0D1CD
:1021D000064901F13A0018BC00F040B8CC000020DC
:1021E0000048004010010020100000207001002075
:1021F00000600240FEE70907090E002804DB00F139
:10220000E02080F80014704700F00F0000F1E0209B
:1022100080F8141D70470000FEF76AFDFFF74EFDC1
:10222000FFF7DCFBFFF7C4FBFFF7F0FCFFF79EFBBB
:10223000FFF71CFCFFF782FC00F008F800210248C1
:10224000FFF7A2FAFEE700008400002002492422E2
:10225000A1F12400FFF7FEBCAA010020F0B5002880
:1022600055D0002953D00278437842EA0322C2F3C2
:102270000A020A8043788478DB0843EA4413C3F3F4
:102280000A034B808478C578A40944EA850405795B
:1022900044EA8524C4F30A048C80057946796D08E4
:1022A00045EAC615C5F30A05CD804679C6F3011681
:1022B0008E724679B609CE728679C77946EA0726C4
:1022C0008E81067A477A46EA0726CE81867AC77AD1
:1022D00046EA07260E82067B8E74467BCE74867B8A
:1022E000C77B46EA07268E82067C407CA2F5806288
:1022F0000A80A3F580634B80A4F5806446EA002041
:102300008C80A5F58065CD80A0F580600881F0BD4A
:102310004FF04070E1EE100A7047000610160006FC
:102320001016000000000000000001020304060770
:102330000809000000000102030400005C230008FB
:102340000000002014000000C401000870230008F1
:10235000140000201C080000E0010008010000003B
:1023600010000000000000000024F4000000000045
:040000050800018965
:00000001FF
